:020000040800F2
:1000000000800020DD700008496E0008536E000873
:1000100000000000000000000000000000000000E0
:10002000000000000000000000000000596E000801
:100030000000000000000000636E00086D6E000804
:100040002D7100082D7100082D7100082D71000818
:100050002D7100082D7100082D7100082D71000808
:100060002D7100082D7100082D7100082D710008F8
:100070002D7100082D7100082D7100082D710008E8
:100080002D7100082D7100082D7100082D710008D8
:100090002D7100082D7100082D7100082D710008C8
:1000A0002D7100082D7100082D7100082D710008B8
:0C00B0002D7100087B6E0008916E0008A6
:1000BC0010B5064C2378002B07D1054B002B02D032
:1000CC00044800E000BF0123237010BD0C00002089
:1000DC000000000048720008044B10B5002B03D040
:1000EC000349044800E000BF10BDC04600000000FA
:1000FC00100000204872000880B500AF074B074A7B
:10010C00126810210A431A60002000F033F806F040
:10011C0075FD00231800BD4680BDC046002002407E
:10012C0080B500AF0D4B012252421A610B4B0022DD
:10013C001A610A4B01225242DA60084B0022DA6043
:10014C00064B012252429A62044B00229A6200F042
:10015C000CF800231800BD4680BDC04600100240BC
:10016C0080B500AFC046BD4680BD80B500AFC0466F
:10017C00BD4680BD90B583B000AF7860144B1C6851
:10018C00144B1B781900FA23980006F015FF030096
:10019C001900200006F010FF0300180001F010FCFD
:1001AC00031E01D001230FE07B68032B0BD8796869
:1001BC0001235B420022180001F0C8FB064B7A6851
:1001CC001A60002300E001231800BD4603B090BD67
:1001DC0008000020040000200000002080B500AFC3
:1001EC00054B1B781A00054B1B68D218034B1A6081
:1001FC00C046BD4680BDC04604000020280000203B
:10020C0080B500AF024B1B681800BD4680BDC046D0
:10021C002800002080B500AF024B1B681800BD46BB
:10022C0080BDC0460000002090B585B000AF020034
:10023C00FB1D1A700F23FB1800221A70144B1B782D
:10024C00FA1D12789A421BD00E23FB18104A127812
:10025C001A700F4BFA1D12781A700E4B1B680F2276
:10026C00BC181800FFF786FF030023700F23FB1840
:10027C001B78002B04D0064B0E22BA1812781A7079
:10028C000F23FB181B781800BD4605B090BDC04667
:10029C00040000200000002080B500AF024B1B784A
:1002AC001800BD4680BDC0460400002080B584B057
:1002BC0000AF7860FFF7A4FF0300BB607B68FB60B6
:1002CC00FB68013305D0094B1B781A00FB689B189F
:1002DC00FB60C046FFF794FF0200BB68D21AFB68B4
:1002EC009A42F7D3C046BD4604B080BD040000203E
:1002FC0080B500AF044B044A126802218A431A608D
:10030C00C046BD4680BDC04610E000E080B500AFE1
:10031C00044B044A126802210A431A60C046BD46C7
:10032C0080BDC04610E000E080B500AF014B180066
:10033C00BD4680BD0003070180B500AF024B1B68B2
:10034C001B0C1800BD4680BD0058014080B500AFA5
:10035C00034B1B681B051B0D1800BD4680BDC0461A
:10036C000058014080B500AF024B1B681800BD4619
:10037C0080BDC046ACF7FF1F80B500AF024B1B68B9
:10038C001800BD4680BDC046B0F7FF1F80B500AF5A
:10039C00024B1B681800BD4680BDC046B4F7FF1F5A
:1003AC0080B500AF044B044A526802210A435A60DC
:1003BC00C046BD4680BDC0460058014080B500AF68
:1003CC00044B044A526802218A435A60C046BD4617
:1003DC0080BDC0460058014080B500AF044B044AB4
:1003EC00526804210A435A60C046BD4680BDC046CF
:1003FC000058014080B500AF044B044A52680421F8
:10040C008A435A60C046BD4680BDC0460058014074
:10041C0080B584B000AF78607B68002B01D10123DC
:10042C00EFE07B6820229B5CDBB2002B03D17B6866
:10043C00180006F007FC7B681B687A681268126863
:10044C0002218A431A60FFF7DBFE0300FB6013E016
:10045C00FFF7D6FE0200FB68D31A0A2B0CD97B6877
:10046C005B6A802292021A437B685A627B68202264
:10047C00052199540123C4E07B681B685B68022248
:10048C001340E5D17B681B687A68126812680121F9
:10049C000A431A60FFF7B4FE0300FB6013E0FFF79A
:1004AC00AFFE0200FB68D31A0A2B0CD97B685B6A7F
:1004BC00802292021A437B685A627B6820220521B3
:1004CC00995401239DE07B681B685B6801221340F3
:1004DC00E5D07B681B7E012B08D17B681B687A6892
:1004EC001268126880210A431A6007E07B681B6857
:1004FC007A681268126880218A431A607B685B7E76
:10050C00012B08D17B681B687A681268126840213D
:10051C000A431A6007E07B681B687A6812681268E5
:10052C0040218A431A607B689B7E012B08D17B6833
:10053C001B687A681268126820210A431A6007E067
:10054C007B681B687A681268126820218A431A60DB
:10055C007B68DB7E012B08D17B681B687A6812688C
:10056C00126810218A431A6007E07B681B687A685E
:10057C001268126810210A431A607B681B7F012BDA
:10058C0008D17B681B687A681268126808210A43D4
:10059C001A6007E07B681B687A6812681268082189
:1005AC008A431A607B685B7F012B08D17B681B68D0
:1005BC007A681268126804210A431A6007E07B68A3
:1005CC001B687A681268126804218A431A607B6877
:1005DC001B687A6891687A68D26811437A681269E4
:1005EC0011437A68526911437A685268013A0A4396
:1005FC00DA617B6800225A627B68202201219954BF
:10060C0000231800BD4604B080BD80B582B000AF99
:10061C0078607B68002B01D1012318E07B681800FF
:10062C0000F064F97B68180006F066FB7B681B68B9
:10063C007A6812681268802109020A431A607B6882
:10064C0000225A627B682022002199540023180052
:10065C00BD4602B080BD80B582B000AF7860C046A8
:10066C00BD4602B080BD80B582B000AF7860C04698
:10067C00BD4602B080BD80B586B000AF78603960F1
:10068C007B681B687B611323FB187A682021525C02
:10069C001A701323FB181B78012B05D01323FB189E
:1006AC001B78022B00D0CFE07A6980239B00D358B3
:1006BC0001221A4311007A6980239B00D1503B68B8
:1006CC005B691F22134001229A401300FB607A6978
:1006DC0087239B00D358FA68D2431A4011007A69D9
:1006EC0087239B00D1503B68DB69002B2AD17A69A8
:1006FC0083239B00D358FA68D2431A4011007A69BD
:10070C0083239B00D1503B685A693B68DB68190412
:10071C003B685B681B041B0C19437B694832D20095
:10072C00D1503B6858693B689B681A043B681B684E
:10073C001B041B0C1A43796903004833DB00CB18EC
:10074C0004331A603B68DB69012B29D17A69832356
:10075C009B00D258FB681A4311007A6983239B00D3
:10076C00D1503B685A693B681B6819043B685B684D
:10077C001B041B0C19437B694832D200D1503B68D7
:10078C0058693B689B681A043B68DB681B041B0CAC
:10079C001A43796903004833DB00CB1804331A6021
:1007AC003B689B69002B0CD17A6981239B00D35841
:1007BC00FA68D2431A4011007A6981239B00D15008
:1007CC000AE07A6981239B00D258FB681A43110016
:1007DC007A6981239B00D1503B681B69002B0CD19B
:1007EC007A6985239B00D358FA68D2431A401100CA
:1007FC007A6985239B00D1500AE07A6985239B0096
:10080C00D258FB681A4311007A6985239B00D1509A
:10081C003B681B6A012B0AD17A6987239B00D2584B
:10082C00FB681A4311007A6987239B00D1507A69BF
:10083C0080239B00D3580122934319007A698023AB
:10084C009B00D150002307E07B685B6A8022D202B8
:10085C001A437B685A6201231800BD4606B080BD5E
:10086C0080B584B000AF78607B6820229B5CDBB2E3
:10087C00012B2FD17B682022022199547B681B68A5
:10088C007A681268126801218A431A60FFF7B8FC73
:10089C000300FB6013E0FFF7B3FC0200FB68D31A04
:1008AC000A2B0CD97B685B6A802292021A437B6804
:1008BC005A627B68202205219954012312E07B683F
:1008CC001B685B6801221340E5D17B6800225A62E9
:1008DC00002307E07B685B6A802212031A437B6863
:1008EC005A6201231800BD4604B080BD80B584B0A7
:1008FC0000AF78607B6820229B5CDBB2022B34D18A
:10090C007B681B687A681268126801210A431A60B6
:10091C00FFF776FC0300FB6013E0FFF771FC0200AD
:10092C00FB68D31A0A2B0CD97B685B6A8022920273
:10093C001A437B685A627B68202205219954012353
:10094C001BE07B681B685B6801221340E5D07B6869
:10095C001B687A681268126802218A431A607B68E5
:10096C00202201219954002307E07B685B6A8022D6
:10097C0052031A437B685A6201231800BD4604B027
:10098C0080BD80B584B000AF78600F23FB187A6807
:10099C002021525C1A700F23FB181B78012B04D0FA
:1009AC000F23FB181B78022B09D17B681B687A6814
:1009BC001268126802210A431A60002307E07B6860
:1009CC005B6A8022D2021A437B685A6201231800A8
:1009DC00BD4604B080BD80B586B000AF7860002302
:1009EC00FB601F4B7B611323FB187A682021525C40
:1009FC001A701323FB181B78012B04D01323FB183C
:100A0C001B78022B1FD17B681B687A6812681268EE
:100A1C0002218A431A60FB680133FB60FA687B6928
:100A2C009A4208D97B685B6A802292021A437B68DF
:100A3C005A6201230FE07B681B685B68022213403B
:100A4C00E9D1002307E07B685B6A8022D2021A435B
:100A5C007B685A6201231800BD4606B080BDC046B3
:100A6C0040420F0080B584B000AF78600023FB607B
:100A7C000B23FB187A682021525C1A700B23FB188D
:100A8C001B78012B04D00B23FB181B78022B07D1EE
:100A9C007B681B685B680222134001D00123FB605A
:100AAC00FB681800BD4604B080BD80B588B000AFAF
:100ABC00F860B9607A603B601F23FB18FA6820214C
:100ACC00525C1A70FB681B689B68BB611F23FB1888
:100ADC001B78012B05D01F23FB181B78022B00D091
:100AEC00B4E0BA698023DB0413400AD1BA698023CD
:100AFC001B05134005D1BA6980235B05134000D157
:100B0C009BE0BB691B0E032213407B617B69022BAC
:100B1C0008D9FB685B6A802212041A43FB685A628C
:100B2C0001239BE001227B699A403B681A60BB68F9
:100B3C009B68002B0CD1FB681A68BB681B685905B5
:100B4C00BB68DB6819437B6918331B0199500EE0B5
:100B5C00FB681A68BB685B68D900BB689B68194363
:100B6C00BB68DB6819437B6918331B019950FB6820
:100B7C001968BB681A697B6918331B01CB180433DD
:100B8C001A60BB681B7D012B12D1FB681968FB68CE
:100B9C001A687B6918331B01D31804331B68802235
:100BAC0052001A437B6918331B01CB1804331A60AB
:100BBC00FB6818687B6807331B781A067B6806335A
:100BCC001B781B041A437B6805331B781B021343E9
:100BDC007A68043212781A437969C6235B000901DA
:100BEC004118CB181A60FB6818687B6803331B78B4
:100BFC001A067B6802331B781B041A437B6801338B
:100C0C001B781B0213437A6812781A437969C42340
:100C1C005B0009014118CB181A60FB681A68FB6865
:100C2C001B68796918310901CB58012119437B697B
:100C3C0018331B019950002310E0FB685B6A80227B
:100C4C0092031A43FB685A62012307E0FB685B6A54
:100C5C008022D2021A43FB685A6201231800BD4657
:100C6C0008B080BD80B584B000AF786039600F23C8
:100C7C00FB187A682021525C1A700F23FB181B7822
:100C8C00012B04D00F23FB181B78022B27D13B68B8
:100C9C000122134007D07B681B687A68126892683F
:100CAC0080210A439A603B680222134008D07B687B
:100CBC001B687A6812689268802109020A439A605C
:100CCC003B680422134008D07B681B687A68126862
:100CDC009268802109040A439A60002307E07B682C
:100CEC005B6A8022D2021A437B685A620123180085
:100CFC00BD4604B080BD80B584B000AF78600023E1
:100D0C00FB600B23FB187A682021525C1A700B23B2
:100D1C00FB181B78012B04D00B23FB181B78022B20
:100D2C001DD17B681B689A688023DB04134002D0BA
:100D3C00FB680133FB607B681B689A6880231B058A
:100D4C00134002D0FB680133FB607B681B689A6818
:100D5C0080235B05134002D0FB680133FB60FB680A
:100D6C001800BD4604B080BD80B584B000AF78607B
:100D7C0039600023FB600B23FB187A682021525C3E
:100D8C001A700B23FB181B78012B04D00B23FB18B8
:100D9C001B78022B0BD17B681B689B683A68920608
:100DAC001A403B689B069A4201D00123FB60FB680A
:100DBC001800BD4604B080BD80B586B000AF786029
:100DCC00396000237B610F23FB187A682021525C69
:100DDC001A700F23FB181B78012B04D00F23FB1860
:100DEC001B78022B19D13B68012B02D100233B61EC
:100DFC0007E03B68022B02D101233B6101E0022397
:100E0C003B617B681A683B6918331B01D3180433A8
:100E1C001B681B0C1B041B0C7B617B691800BD46FB
:100E2C0006B080BD80B586B000AFF860B9607A605E
:100E3C003B601723FB18FA682021525C1A701723A9
:100E4C00FB181B78012B05D01723FB181B78022BE2
:100E5C0000D0F8E0BB68002B0ED1FB681B68DB6888
:100E6C000322134017D1FB685B6A802292031A435A
:100E7C00FB685A620123EEE0FB681B681B690322C6
:100E8C00134008D1FB685B6A802292031A43FB680B
:100E9C005A620123DFE0FB681B68BA681B3212013F
:100EAC00D35804221A407B689A607B689B68002B9D
:100EBC000BD1FB681B68BA681B321201D3585B0D4F
:100ECC005B055A0D7B681A600AE0FB681B68BA6800
:100EDC001B321201D358DB08DB00DA087B685A603E
:100EEC00FB681B68BA681B321201D35802221A40E5
:100EFC007B68DA60FB681A68BB681B331B01D3186C
:100F0C0004331B680F221A407B681A61FB681A684D
:100F1C00BB681B331B01D31804331B681B0AFF224D
:100F2C001A407B689A61FB681A68BB681B331B010B
:100F3C00D31804331B681B0C1B041A0C7B685A61F6
:100F4C00FB681968BA68DC235B0012018A18D31895
:100F5C001B68DAB23B681A703B685A1CFB6818684D
:100F6C00B968DC235B0009014118CB181B681B0A0C
:100F7C00DBB213703B689A1CFB681868B968DC23F9
:100F8C005B0009014118CB181B681B0CDBB21370FA
:100F9C003B68DA1CFB681868B968DC235B00090144
:100FAC004118CB181B681B0EDBB213703B681A1D63
:100FBC00FB681868B968DE235B0009014118CB187F
:100FCC001B68DBB213703B685A1DFB681868B96864
:100FDC00DE235B0009014118CB181B681B0ADBB22E
:100FEC0013703B689A1DFB681868B968DE235B00B8
:100FFC0009014118CB181B681B0CDBB213703B6842
:10100C00DA1DFB681868B968DE235B00090141181A
:10101C00CB181B681B0EDBB21370BB68002B08D1FE
:10102C00FB681B68FA681268D26820210A43DA60F0
:10103C0007E0FB681B68FA681268126920210A43F2
:10104C001A61002307E0FB685B6A8022D2021A4314
:10105C00FB685A6201231800BD4606B080BD80B5FE
:10106C0084B000AF786039600023FB600B23FB1861
:10107C007A682021525C1A700B23FB181B78012B09
:10108C0004D00B23FB181B78022B0FD13B68002BD1
:10109C0006D17B681B68DB6803221340FB6005E00C
:1010AC007B681B681B6903221340FB60FB681800FC
:1010BC00BD4604B080BD80B584B000AF78603960A7
:1010CC000F23FB187A682021525C1A700F23FB182F
:1010DC001B78012B04D00F23FB181B78022B09D192
:1010EC007B681B687A68126851693A680A435A61CE
:1010FC00002307E07B685B6A8022D2021A437B687C
:10110C005A6201231800BD4604B080BD80B584B07E
:10111C0000AF786039600F23FB187A682021525C8D
:10112C001A700F23FB181B78012B04D00F23FB180C
:10113C001B78022B0AD17B681B687A68126852698B
:10114C003968C9430A405A61002307E07B685B6A2F
:10115C008022D2021A437B685A6201231800BD46D2
:10116C0004B080BD80B58AB000AF786000237B628C
:10117C007B681B685B693B627B681B685B68FB6117
:10118C007B681B689B68BB617B681B68DB687B6149
:10119C007B681B681B693B617B681B689B69FB60F8
:1011AC003B6A0122134000D184E0BB690122134049
:1011BC0024D07B681B6801229A60BB690222134011
:1011CC0004D07B68180000F07EF917E0BB6904229C
:1011DC00134005D07B6A8022120113437B620DE021
:1011EC00BB690822134005D07B6A8022520113434D
:1011FC007B6203E07B68180000F07DF9BA698023FC
:10120C005B00134028D07B681B68802252009A60D8
:10121C00BA6980239B00134004D07B68180000F04F
:10122C005AF919E0BA698023DB00134005D07B6AB8
:10123C008022920113437B620EE0BA6980231B016A
:10124C00134005D07B6A8022D20113437B6203E0FA
:10125C007B68180000F057F9BA6980235B021340D1
:10126C0028D07B681B68802252029A60BA6980235E
:10127C009B02134004D07B68180000F034F919E08D
:10128C00BA698023DB02134005D07B6A80221202EC
:10129C0013437B620EE0BA6980231B03134005D015
:1012AC007B6A8022520213437B6203E07B68180046
:1012BC0000F031F93B6A082213400CD07B691022F4
:1012CC00134008D07B6A8022920013437B627B68B8
:1012DC001B681022DA603B6A042213400BD07B6936
:1012EC000822134007D07B681B680822DA607B68F1
:1012FC00180000F020F93B6A0222134009D07B68E9
:10130C001B68DB680322134003D07B68180000F0D5
:10131C000AF93B6A402213400CD03B69102213405F
:10132C0008D07B6A8022D20013437B627B681B68E7
:10133C0010221A613B6A202213400BD03B69082211
:10134C00134007D07B681B6808221A617B68180061
:10135C0000F001F93B6A1022134009D07B681B682E
:10136C001B690322134003D07B68180000F0EBF8D4
:10137C003A6A80239B0213400BD0FB691022134066
:10138C0007D07B681B6810225A607B68180000F03D
:10139C00EAF83A6A80235B0213400BD0FB690822FF
:1013AC00134007D07B681B6808225A607B681800C2
:1013BC0000F0E1F83A6A80231B02134000D171E07F
:1013CC00FB690422134000D168E03A6A80235B0079
:1013DC00134007D0FB680122134003D07B6A012223
:1013EC0013437B623A6A80239B00134007D0FB684F
:1013FC000222134003D07B6A022213437B623A6AB7
:10140C008023DB00134007D0FB680422134003D079
:10141C007B6A042213437B623A6A80231B011340CC
:10142C003CD0FB687022134038D0FB68702213400C
:10143C00302B16D004D8102B09D0202B0CD025E043
:10144C00502B18D0602B1BD0402B0FD01EE07B6A8A
:10145C00082213437B6219E07B6A102213437B62E0
:10146C0014E07B6A202213437B620FE07B6A4022EC
:10147C0013437B620AE07B6A802213437B6205E0A4
:10148C007B6A8022520013437B62C0467B681B68D8
:10149C007A681268926970218A439A617B681B682A
:1014AC0004225A607B6A002B09D07B685A6A7B6ADB
:1014BC001A437B685A627B68180000F064F8C046D7
:1014CC00BD460AB080BD80B582B000AF7860C04622
:1014DC00BD4602B080BD80B582B000AF7860C0461A
:1014EC00BD4602B080BD80B582B000AF7860C0460A
:1014FC00BD4602B080BD80B582B000AF7860C046FA
:10150C00BD4602B080BD80B582B000AF7860C046E9
:10151C00BD4602B080BD80B582B000AF7860C046D9
:10152C00BD4602B080BD80B582B000AF7860C046C9
:10153C00BD4602B080BD80B582B000AF7860C046B9
:10154C00BD4602B080BD80B582B000AF7860C046A9
:10155C00BD4602B080BD80B582B000AF7860C04699
:10156C00BD4602B080BD80B582B000AF7860C04689
:10157C00BD4602B080BD80B582B000AF7860C04679
:10158C00BD4602B080BD80B582B000AF7860C04669
:10159C00BD4602B080BD80B584B000AF78600F232B
:1015AC00FB187A682021525C1A700F23FB181B78E9
:1015BC00012B04D00F23FB181B78022B14D17B6852
:1015CC001B685B680222134004D00F23FB18042213
:1015DC001A7009E07B681B681B680222134003D059
:1015EC000F23FB1803221A700F23FB181B7818000B
:1015FC00BD4604B080BD80B582B000AF78607B681A
:10160C005B6A1800BD4602B080BD80B584B000AFE7
:10161C0078600F23FB1800221A700E23FB187A68CF
:10162C002021525C1A700E23FB181B78012B04D05E
:10163C000E23FB181B78022B03D17B6800225A6205
:10164C000AE07B685B6A8022D2021A437B685A628A
:10165C000F23FB1801221A700F23FB181B7818009C
:10166C00BD4604B080BDC04680B582B000AF02005C
:10167C00FB1D1A70FB1D1B787F2B09D8064BFA1D1E
:10168C00127811001F220A40012191400A001A60B1
:10169C00C046BD4602B080BD00E100E080B582B01E
:1016AC0000AF0200FB1D1A70FB1D1B787F2B0ED8A0
:1016BC000949FB1D1B781A001F23134001229A4075
:1016CC00130080228B50BFF34F8FBFF36F8FC04638
:1016DC00BD4602B080BDC04600E100E080B582B0DE
:1016EC0000AF0200FB1D1A70FB1D1B787F2B0DD861
:1016FC00094A80235B00D258FB1D1B7819001F235D
:10170C000B40DA4013000122134000E000231800C4
:10171C00BD4602B080BDC04600E100E080B582B09D
:10172C0000AF0200FB1D1A70FB1D1B787F2B0AD823
:10173C000749FB1D1B781A001F23134001229A40F6
:10174C0080235B00CA50C046BD4602B080BDC04677
:10175C0000E100E080B582B000AF0200FB1D1A7002
:10176C00FB1D1B787F2B0AD80749FB1D1B781A0021
:10177C001F23134001229A40C0235B00CA50C0466D
:10178C00BD4602B080BDC04600E100E0B0B582B0FD
:10179C0000AF02003960FB1D1A70FB1D1B787F2BFC
:1017AC0028D82F4CFB1D1B785BB29B082C49FA1DCB
:1017BC00127852B29208C03292005258F91D097830
:1017CC00080003210140C900FF2088400100C943E3
:1017DC0011403A689201FF201040FA1D1278150052
:1017EC0003222A40D200904002000A43C0339B00DF
:1017FC001A5131E01B4CFB1D1B781A000F231340B0
:10180C00083B9908174AFB1D1B7818000F2303404F
:10181C00083B9B0806339B00D31804331B68FA1D46
:10182C001278100003220240D200FF2090400200E8
:10183C00D2431A403B689B01FF201840FB1D1B78CC
:10184C001D0003232B40DB00984003001A438B1D23
:10185C009B00E31804331A60C046BD4602B0B0BD0D
:10186C0000E100E000ED00E080B582B000AF0200C6
:10187C00FB1D1A70FB1D1B787F2B13D8174AFB1D01
:10188C001B785BB29B08C0339B009A58FB1D1B78DE
:10189C00190003230B40DB00DA4013009B090322E1
:1018AC00134017E00E4AFB1D1B7819000F230B4049
:1018BC00083B9B0806339B00D31804331A68FB1DA6
:1018CC001B78190003230B40DB00DA4013009B0943
:1018DC00032213401800BD4602B080BD00E100E0B9
:1018EC0000ED00E080B500AFBFF34F8F034B044A0F
:1018FC00DA60BFF34F8FC046FDE7C04600ED00E055
:10190C000400FA0580B582B000AF78607B68013BBB
:10191C000C4A934201D9012310E00B4B7A68013A2F
:10192C005A6001235B4203211800FFF72FFF064B7F
:10193C0000229A60044B07221A6000231800BD464F
:10194C0002B080BDFFFFFF0010E000E080B584B066
:10195C0000AFB9607A600F23FB18021C1A70BA68CA
:10196C000F23FB181B785BB211001800FFF70EFF5A
:10197C00C046BD4604B080BD80B582B000AF020049
:10198C00FB1D1A70FB1D1B785BB21800FFF76CFE79
:10199C00C046BD4602B080BD80B582B000AF02002B
:1019AC00FB1D1A70FB1D1B785BB21800FFF776FE4F
:1019BC00C046BD4602B080BD80B500AFFFF792FFB8
:1019CC0080B582B000AF78607B681800FFF79AFF93
:1019DC0003001800BD4602B080BD80B582B000AFD8
:1019EC000200FB1D1A70FB1D1B785BB21800FFF781
:1019FC003BFF03001800BD4602B080BD80B582B02D
:101A0C0000AF0200FB1D1A70FB1D1B785BB21800A7
:101A1C00FFF784FEC046BD4602B080BD80B582B0E3
:101A2C0000AF0200FB1D1A70FB1D1B785BB2180087
:101A3C00FFF754FE03001800BD4602B080BD80B510
:101A4C0082B000AF0200FB1D1A70FB1D1B785BB24D
:101A5C001800FFF77FFEC046BD4602B080BD80B5C2
:101A6C0082B000AF78607B68042B06D1084B084A23
:101A7C00126804210A431A6005E0054B044A1268F7
:101A8C0004218A431A60C046BD4602B080BDC046E0
:101A9C0010E000E080B500AF00F003F8C046BD4692
:101AAC0080BD80B500AFC046BD4680BD80B584B05A
:101ABC0000AF78600023FB607B68002B01D1012311
:101ACC0036E07B682122022199547B681B681B68D5
:101ADC00FB60FB68184A1340FB607B685A687B68A4
:101AEC009B681A437B68DB681A437B681B691A4343
:101AFC007B685B691A437B689B691A437B68DB696B
:101B0C001343FA681343FB607B681B68FA681A601E
:101B1C007B68180000F0B0FB7B6800229A637B683E
:101B2C002122012199547B68202200219954002301
:101B3C001800BD4604B080BD0FC0FFFF80B582B059
:101B4C0000AF78607B68002B01D101233BE07B6800
:101B5C001B687A681268126801218A431A607B68D4
:101B6C001B6800221A607B681B6800225A607B6825
:101B7C001B6800229A607B681B680022DA607B6815
:101B8C00180000F079FB7B68DB6B7A68126C012122
:101B9C0091400A005A607B6800229A627B6800229E
:101BAC00DA627B6800221A637B6800225A637B68C6
:101BBC0000229A637B682122002199547B682022A1
:101BCC000021995400231800BD4602B080BD80B599
:101BDC0086B000AFF860B9607A603B601723FB18E1
:101BEC0000221A70FB6820229B5C012B01D102237E
:101BFC0032E0FB68202201219954FB6821229B5C76
:101C0C00DBB2012B1DD1FB68212202219954FB6808
:101C1C0000229A63FB681B68FA681268126801213B
:101C2C008A431A603B687A68B968F86800F0F8FA79
:101C3C00FB681B68FA681268126801210A431A6073
:101C4C0007E0FB682022002199541723FB1802227D
:101C5C001A701723FB181B781800BD4606B080BD00
:101C6C0080B586B000AFF860B9607A603B6017232E
:101C7C00FB1800221A70FB6820229B5C012B01D1FF
:101C8C0002234FE0FB68202201219954FB6821229A
:101C9C009B5CDBB2012B3AD1FB68212202219954C7
:101CAC00FB6800229A63FB681B68FA68126812686A
:101CBC0001218A431A603B687A68B968F86800F0B9
:101CCC00AFFAFB68DB6A002B08D0FB681B68FA686C
:101CDC00126812680E210A431A600FE0FB681B6839
:101CEC00FA68126812680A210A431A60FB681B68BA
:101CFC00FA681268126804218A431A60FB681B6830
:101D0C00FA681268126801210A431A6007E0FB683E
:101D1C002022002199541723FB1802221A70172332
:101D2C00FB181B781800BD4606B080BD80B582B08C
:101D3C0000AF78607B6821229B5CDBB2022B08D061
:101D4C007B6804229A637B6820220021995401232A
:101D5C0020E07B681B687A68126812680E218A433F
:101D6C001A607B681B687A681268126801218A43C2
:101D7C001A607B68DB6B7A68126C012191400A0057
:101D8C005A607B682122012199547B682022002112
:101D9C00995400231800BD4602B080BD80B584B0B4
:101DAC0000AF78600F23FB1800221A707B68212289
:101DBC009B5CDBB2022B07D07B6804229A630F2357
:101DCC00FB1801221A7028E07B681B687A6812687D
:101DDC0012680E218A431A607B681B687A68126845
:101DEC00126801218A431A607B68DB6B7A68126C7B
:101DFC00012191400A005A607B68212201219954EB
:101E0C007B682022002199547B685B6B002B04D0EB
:101E1C007B685B6B7A68100098470F23FB181B7864
:101E2C001800BD4604B080BD80B586B000AFF86028
:101E3C00B9607A6000233B61FB6821229B5CDBB2BA
:101E4C00022B08D0FB6804229A63FB682022002135
:101E5C00995401237DE0FB681B681B68202213400A
:101E6C0005D0FB68802252009A63012371E0BB68A5
:101E7C00002B06D1FB681B6C02229A4013007B617D
:101E8C0005E0FB681B6C04229A4013007B61FEF793
:101E9C00B7F903003B6139E0FB68DB6B1A68FB6840
:101EAC001B6C082199400B00134014D0FB68DB6BB2
:101EBC00FA68126C012191400A005A60FB680122F9
:101ECC009A63FB68212201219954FB68202200218E
:101EDC00995401233DE07B68013317D07B68002BBC
:101EEC0007D0FEF78DF902003B69D21A7B689A4243
:101EFC000CD9FB6820229A63FB682122012199549A
:101F0C00FB68202200219954012322E0FB68DB6B43
:101F1C001B687A691340BFD0BB68002B0CD1FB68DF
:101F2C00DB6BFA68126C022191400A005A60FB6864
:101F3C0021220121995407E0FB68DB6BFA68126CD3
:101F4C00042191400A005A60FB6820220021995418
:101F5C0000231800BD4606B080BD80B584B000AF2C
:101F6C0078607B68DB6B1B68FB607B681B681B689D
:101F7C00BB607B681B6C04229A401300FA68134008
:101F8C0024D0BB680422134020D07B681B681B68DC
:101F9C002022134007D17B681B687A68126812688C
:101FAC0004218A431A607B68DB6B7A68126C04210B
:101FBC0091400A005A607B68DB6A002B00D16AE012
:101FCC007B68DB6A7A681000984764E07B681B6C5E
:101FDC0002229A401300FA6813402BD0BB680222ED
:101FEC00134027D07B681B681B68202213400BD141
:101FFC007B681B687A68126812680A218A431A6027
:10200C007B682122012199547B68DB6B7A68126C06
:10201C00022191400A005A607B68202200219954C9
:10202C007B689B6A002B36D07B689B6A7A681000B1
:10203C00984730E07B681B6C08229A401300FA68C2
:10204C00134028D0BB680822134024D07B681B683F
:10205C007A68126812680E218A431A607B68DB6BFF
:10206C007A68126C012191400A005A607B68012247
:10207C009A637B682122012199547B6820220021DC
:10208C0099547B681B6B002B05D07B681B6B7A68A3
:10209C0010009847FFE7C046BD4604B080BD80B530
:1020AC0086B000AFF8607A600B23FB180A1C1A701C
:1020BC001723FB1800221A70FB6820229B5C012B53
:1020CC0001D1022338E0FB68202201219954FB68DE
:1020DC0021229B5CDBB2012B23D10B23FB181B7839
:1020EC00012B0CD002DC002B05D014E0022B0AD003
:1020FC00032B0CD00FE0FB687A689A6215E0FB6842
:10210C007A68DA6211E0FB687A681A630DE0FB68A2
:10211C007A685A6309E01723FB1801221A70C0462B
:10212C0003E01723FB1801221A70FB682022002100
:10213C0099541723FB181B781800BD4606B080BDB8
:10214C0080B584B000AF78600A00FB1C1A700F23B6
:10215C00FB1800221A707B6820229B5C012B01D19A
:10216C00022340E07B682022012199547B682122C4
:10217C009B5CDBB2012B2BD1FB1C1B78042B21D8D5
:10218C009A001B4BD3181B689F467B6800229A62EF
:10219C0022E07B680022DA621EE07B6800221A6370
:1021AC001AE07B6800225A6316E07B6800229A6270
:1021BC007B680022DA627B6800221A637B6800224B
:1021CC005A6309E00F23FB1801221A70C04603E082
:1021DC000F23FB1801221A707B68202200219954CE
:1021EC000F23FB181B781800BD4604B080BDC046F9
:1021FC006072000880B582B000AF78607B682122E5
:10220C009B5CDBB21800BD4602B080BD80B582B0CD
:10221C0000AF78607B689B6B1800BD4602B080BD38
:10222C0080B584B000AFF860B9607A603B60FB6841
:10223C00DB6BFA68126C012191400A005A60FB6852
:10224C001B683A685A60FB685B68102B08D1FB6806
:10225C001B687A689A60FB681B68BA68DA6007E0EA
:10226C00FB681B68BA689A60FB681B687A68DA605E
:10227C00C046BD4604B080BD80B582B000AF78606A
:10228C007B681B681A00144B9A4210D87B681B6839
:10229C00124A944663441421180004F08DFE030086
:1022AC009A007B681A647B680D4ADA630FE07B68DE
:1022BC001B680C4A944663441421180004F07CFEFD
:1022CC0003009A007B681A647B68074ADA63C0468D
:1022DC00BD4602B080BDC04607040240F8FFFDBFFA
:1022EC0000000240F8FBFDBF0004024080B586B040
:1022FC0000AF7860396000237B6155E13B681B6857
:10230C0001217A6991400A001340FB60FB68002BA5
:10231C0000D146E13B685B68022B03D03B685B68ED
:10232C00122B23D17B69DA087B6808329200D358D0
:10233C003B617B69072213409B000F229A401300DC
:10234C00DA433B6913403B613B681A697B6907219F
:10235C000B409B009A4013003A6913433B617B6925
:10236C00DA087B68083292003969D1507B681B68A7
:10237C003B617B695B0003229A401300DA433B69A3
:10238C0013403B613B685B6803221A407B695B002E
:10239C009A4013003A6913433B617B683A691A60AF
:1023AC003B685B68012B0BD03B685B68022B07D04A
:1023BC003B685B68112B03D03B685B68122B30D1F8
:1023CC007B689B683B617B695B0003229A4013002E
:1023DC00DA433B6913403B613B68DA687B695B001D
:1023EC009A4013003A6913433B617B683A699A60DF
:1023FC007B685B683B6101227B699A401300DA437E
:10240C003B6913403B613B685B681B0901221A4026
:10241C007B699A4013003A6913433B617B683A69C4
:10242C005A607B68DB683B617B695B0003229A40E6
:10243C001300DA433B6913403B613B689A687B6944
:10244C005B009A4013003A6913433B617B683A691D
:10245C00DA603B685A6880235B05134000D1A0E02A
:10246C00574B574A926901210A439A61544B9B6915
:10247C0001221340BB60BB68524A7B699B08023344
:10248C009B009B583B617B69032213409B000F22EE
:10249C009A401300DA433B6913403B617A689023FE
:1024AC00DB059A4219D07B68474A934213D07B686C
:1024BC00464A93420DD07B68454A934207D07B68CD
:1024CC00444A934201D1042308E0052306E0032388
:1024DC0004E0022302E0012300E000237A690321D7
:1024EC000A40920093403A6913433B6135497B693A
:1024FC009B0802339B003A695A50374B1B683B616F
:10250C00FB68DA433B6913403B613B685A688023A4
:10251C005B02134003D03A69FB6813433B612E4BBB
:10252C003A691A602C4B5B683B61FB68DA433B6988
:10253C0013403B613B685A6880239B02134003D0D5
:10254C003A69FB6813433B61234B3A695A60224B4F
:10255C009B683B61FB68DA433B6913403B613B681A
:10256C005A6880235B03134003D03A69FB6813431A
:10257C003B61194B3A699A60174BDB683B61FB680E
:10258C00DA433B6913403B613B685A6880239B03E9
:10259C00134003D03A69FB6813433B610E4B3A6915
:1025AC00DA607B6901337B613B681A687B69DA40CE
:1025BC00131E00D0A2E6C046BD4606B080BDC04684
:1025CC0000100240000001400004004800080048D0
:1025DC00000C0048001000480004014080B586B093
:1025EC0000AF7860396000237B61B9E001227B6920
:1025FC009A4013003A6813403B613B69002B00D1B1
:10260C00ABE05C4A7B699B0802339B009B58FB60E8
:10261C007B69032213409B000F229A40FB681340F6
:10262C00FB607A689023DB059A4219D07B68524A8A
:10263C00934213D07B68514A93420DD07B68504A29
:10264C00934207D07B684F4A934201D1042308E0A0
:10265C00052306E0032304E0022302E0012300E04B
:10266C0000237A6903210A40920093401A00FB6808
:10267C009A4232D1444B444A12683969C9430A40E0
:10268C001A60414B404A52683969C9430A405A6042
:10269C003D4B3D4A92683969C9430A409A603A4BAE
:1026AC00394AD2683969C9430A40DA607B69032226
:1026BC0013409B000F229A401300FB602D487B694E
:1026CC009B082C497A699208023292005258F96898
:1026DC00C9430A4002339B001A507B681B687A6915
:1026EC005200032191400A00D2431A407B681A60C1
:1026FC007B69DA087B69D9087B6808318900CB587B
:10270C0079690720014089000F2088400100C943E6
:10271C0019407B6808329200D1507B689B687A69BB
:10272C005200032191400A00D2431A407B689A6000
:10273C007B685B6801217A6991400A00D2431A4098
:10274C007B685A607B68DB687A6952000321914090
:10275C000A00D2431A407B68DA607B6901337B61E3
:10276C003A687B69DA40131E00D03FE7C046BD468D
:10277C0006B080BD0000014000040048000800487D
:10278C00000C0048001000480004014080B584B0E3
:10279C0000AF78600A00BB1C1A807B681B69BA1CEE
:1027AC001288134004D00F23FB1801221A7003E087
:1027BC000F23FB1800221A700F23FB181B7818002C
:1027CC00BD4604B080BD80B582B000AF7860080013
:1027DC001100BB1C021C1A807B1C0A1C1A707B1C6F
:1027EC001B78002B04D0BB1C1A887B689A6103E011
:1027FC00BB1C1A887B689A62C046BD4602B080BD7D
:10280C0080B582B000AF78600A00BB1C1A807B6870
:10281C005B69BA1C1288134005D0BB1C1B881A04B8
:10282C007B689A6103E0BB1C1A887B689A61C0467E
:10283C00BD4602B080BD80B584B000AF78600A00A0
:10284C00BB1C1A8080235B02FB60BB1C1A88FB68D4
:10285C001343FB60FA687B68DA61BB1C1A887B68DF
:10286C00DA61FA687B68DA617B68DB69FB607B683C
:10287C00DA6980235B02134001D0002300E00123BE
:10288C001800BD4604B080BD80B582B000AF020018
:10289C00BB1D1A80094B5B69BA1D1288134008D006
:1028AC00064BBA1D12885A61BB1D1B88180000F01C
:1028BC0007F8C046BD4602B080BDC04600040140CA
:1028CC0080B582B000AF0200BB1D1A80C046BD4669
:1028DC0002B080BD80B582B000AFFDF791FC030063
:1028EC007B60374B364A126881210A431A6008E034
:1028FC00FDF786FC02007B68D31A022B01D9032357
:10290C005AE02F4B1B6802221340F1D02C4B2C4A5F
:10291C0052682C490A405A6009E0FDF771FC02002C
:10292C007B68D31A284A934201D9032344E0244BF1
:10293C005B680C221340F0D1244B254A1A60254BBE
:10294C001B681800FDF716FC031E01D0012333E0B1
:10295C001B4B1B4A126820490A401A60184B184A34
:10296C0012681E490A401A60FDF74AFC03007B609E
:10297C0008E0FDF745FC02007B68D31A022B01D955
:10298C00032319E00E4B1A6880239B041340F0D1EB
:10299C000B4B00225A600A4B0022DA62084B0022D1
:1029AC001A63074B00229A60054B054A526A802134
:1029BC0049040A435A6200231800BD4602B080BD88
:1029CC00001002400CF8FFF08813000008000020F3
:1029DC0000127A0000000020FFFFF6FEFFFFFBFF55
:1029EC0080B588B000AF78607B68002B02D10123E2
:1029FC0000F074FB7B681B680122134000D18EE051
:102A0C00C54B5B680C221340042B0ED0C24B5B6889
:102A1C000C221340082B17D1BF4B5A68C0235B0202
:102A2C001A4080235B029A420ED1BB4B1A6880235A
:102A3C009B02134000D171E07B685B68002B00D0D7
:102A4C006CE0012300F04AFB7B685B68012B07D12B
:102A5C00B14BB14A1268802149020A431A602FE037
:102A6C007B685B68002B0CD1AB4BAB4A1268AB4953
:102A7C000A401A60A84BA84A1268A9490A401A6071
:102A8C001EE07B685B68052B0ED1A34BA24A126833
:102A9C008021C9020A431A609F4B9F4A1268802109
:102AAC0049020A431A600BE09B4B9B4A12689B49F4
:102ABC000A401A60984B984A126899490A401A6061
:102ACC007B685B68002B14D0FDF79AFB0300BB619D
:102ADC0008E0FDF795FB0200BB69D31A642B01D902
:102AEC000323FBE28C4B1A6880239B021340F0D02B
:102AFC0015E0FDF785FB0300BB6108E0FDF780FBEB
:102B0C000200BB69D31A642B01D90323E6E2824B82
:102B1C001A6880239B021340F0D100E0C0467B680A
:102B2C001B680222134000D16CE07B4B5B680C22CB
:102B3C0013400ED0784B5B680C221340082B1FD12E
:102B4C00754B5A68C0235B021A4080231B029A42C1
:102B5C0016D1714B1B680222134005D07B68DB68D1
:102B6C00012B01D00123B9E26B4A6B4B1B68F82196
:102B7C008B4319007B681B69DB000B43136041E03E
:102B8C007B68DB68002B24D0634B634A12680121FD
:102B9C000A431A60FDF734FB0300BB6108E0FDF744
:102BAC002FFB0200BB69D31A022B01D9032395E238
:102BBC00594B1B6802221340F1D0574A564B1B68E5
:102BCC00F8218B4319007B681B69DB000B431360F6
:102BDC0018E0514B504A126801218A431A60FDF7E4
:102BEC000FFB0300BB6108E0FDF70AFB0200BB69A9
:102BFC00D31A022B01D9032370E2474B1B68022224
:102C0C001340F1D17B681B680822134036D07B68D7
:102C1C00DB69002B19D0404B3F4A526A01210A4311
:102C2C005A62FDF7EDFA0300BB6108E0FDF7E8FA24
:102C3C000200BB69D31A022B01D903234EE2364B97
:102C4C005B6A02221340F1D018E0334B324A526ACD
:102C5C0001218A435A62FDF7D3FA0300BB6108E0F5
:102C6C00FDF7CEFA0200BB69D31A022B01D903235C
:102C7C0034E2294B5B6A02221340F1D17B681B685A
:102C8C000422134000D1B5E01F23FB1800221A7058
:102C9C00214BDA6980235B05134011D11E4B1E4A70
:102CAC00D269802149050A43DA611B4BDA6980231A
:102CBC005B051340FB60FB681F23FB1801221A7095
:102CCC00184B1A6880235B0013401AD1154B154A18
:102CDC001268802149000A431A60FDF791FA03003B
:102CEC00BB6108E0FDF78CFA0200BB69D31A642BB8
:102CFC0001D90323F2E10B4B1A6880235B001340CC
:102D0C00F0D07B689B68012B0ED1034B024A126AF0
:102D1C0001210A431A6235E000100240FFFFFEFF5A
:102D2C00FFFFFBFF007000407B689B68002B0CD101
:102D3C00C94BC94A126A01218A431A62C64BC64A58
:102D4C00126A04218A431A621CE07B689B68052B7B
:102D5C000CD1C14BC04A126A04210A431A62BE4B01
:102D6C00BD4A126A01210A431A620BE0BA4BBA4AF5
:102D7C00126A01218A431A62B74BB74A126A0421BC
:102D8C008A431A627B689B68002B14D0FDF738FAD3
:102D9C000300BB6109E0FDF733FA0200BB69D31AEB
:102DAC00AE4A934201D9032398E1AB4B1B6A022232
:102DBC001340F0D013E0FDF723FA0300BB6109E0E8
:102DCC00FDF71EFA0200BB69D31AA44A934201D93B
:102DDC00032383E1A04B1B6A02221340F0D11F2373
:102DEC00FB181B78012B05D19B4B9B4AD2699C4944
:102DFC000A40DA617B681B681022134063D07B6841
:102E0C005B69012B2AD1944B934A526B04210A43E0
:102E1C005A63914B904A526B01210A435A63FDF756
:102E2C00EFF90300BB6108E0FDF7EAF90200BB69AA
:102E3C00D31A022B01D9032350E1874B5B6B02227F
:102E4C001340F1D0844A844B5B6BF8218B431900FF
:102E5C007B689B69DB000B43536334E07B685B69E5
:102E6C00053311D17C4B7C4A526B04218A435A6343
:102E7C00794A794B5B6BF8218B4319007B689B6912
:102E8C00DB000B4353631EE0734B734A526B0421FC
:102E9C000A435A63704B704A526B01218A435A633E
:102EAC00FDF7AEF90300BB6108E0FDF7A9F90200DC
:102EBC00BB69D31A022B01D903230FE1664B5B6B61
:102ECC0002221340F1D17B681B68202213405CD096
:102EDC00614B5B680C2213400C2B0ED05E4B5B6875
:102EEC000C221340082B14D15B4B5A68C0235B0295
:102EFC001A40C0235B029A420BD1574B5A6B80236A
:102F0C005B02134040D07B681B6A012B3CD0012331
:102F1C00E4E07B681B6A002B1BD04F4B4E4A526B74
:102F2C00802149020A435A63FDF76AF90300BB6129
:102F3C0008E0FDF765F90200BB69D31A022B01D931
:102F4C000323CBE0444B5A6B80235B021340F0D03D
:102F5C001BE0414B404A526B42490A405A63FDF711
:102F6C004FF90300BB6108E0FDF74AF90200BB69A9
:102F7C00D31A022B01D90323B0E0374B5A6B8023B1
:102F8C005B021340F0D100E0C0467B685B6A002B0B
:102F9C0000D1A2E0304B5B680C221340082B00D10F
:102FAC0076E07B685B6A022B4BD12B4B2A4A12686A
:102FBC002D490A401A60FDF723F90300BB6108E0B4
:102FCC00FDF71EF90200BB69D31A022B01D90323AA
:102FDC0084E0214B1A6880239B041340F0D11E4AD5
:102FEC001D4BDB6A0F218B4319007B681B6B0B435A
:102FFC00D362194A184B5B681C4919407B68D86A24
:10300C007B689B6A03430B435360134B124A126851
:10301C00802149040A431A60FDF7F2F80300BB61F2
:10302C0008E0FDF7EDF80200BB69D31A022B01D9B9
:10303C00032353E0084B1A6880239B041340F0D001
:10304C004BE0054B044A126807490A401A60FDF729
:10305C00D7F80300BB6114E0001002408813000095
:10306C00FFFFFFEFFFFFFEFFFFFFFFFEFF7FC2FF33
:10307C00FDF7C6F80200BB69D31A022B01D9032352
:10308C002CE0184B1A6880239B041340F0D124E0E9
:10309C007B685B6A012B01D101231FE0114B5B683C
:1030AC007B61104BDB6A3B617A69C0235B021A407F
:1030BC007B689B6A9A420ED13B690F221A407B684F
:1030CC001B6B9A4207D17A69F0239B031A407B68E9
:1030DC00DB6A9A4201D0012300E000231800BD46B0
:1030EC0008B080BD0010024080B584B000AF78609D
:1030FC0039607B68002B01D10123BEE0614B1B685A
:10310C0001221A403B689A4211D25E4B5D4A12680A
:10311C0001218A4311003A680A431A60594B1B6813
:10312C0001221A403B689A4201D00123A5E07B683A
:10313C001B680222134015D07B681B6804221340C5
:10314C0006D0514B504A5268E021C9000A435A60DC
:10315C004D4A4D4B5B68F0218B4319007B689B6893
:10316C000B4353607B681B68012213404CD07B6877
:10317C005B68012B07D1444B1A6880239B021340D8
:10318C0020D1012379E07B685B68022B07D13E4B91
:10319C001A6880239B04134014D101236DE07B68D3
:1031AC005B68032B07D1384B5A6B80235B021340AF
:1031BC0008D1012361E0344B1B680222134001D17A
:1031CC0001235AE0304A304B5B6803218B431900D2
:1031DC007B685B680B435360FDF712F80300FB60E0
:1031EC0009E0FDF70DF80200FB68D31A274A934259
:1031FC0001D9032341E0244B5B680C221A407B6805
:10320C005B689B009A42ECD11E4B1B6801221A4052
:10321C003B689A4211D91B4B1A4A126801218A4306
:10322C0011003A680A431A60164B1B6801221A40B7
:10323C003B689A4201D001231FE07B681B68042283
:10324C00134008D0104A104B5B68114919407B6839
:10325C00DB680B43536000F083F801000A4B5B689A
:10326C001B090F2213400B4AD35C0A00DA400A4BAD
:10327C001A600020FCF77EFF00231800BD4604B046
:10328C0080BDC046002002400010024088130000A0
:10329C00FFF8FFFF187300080800002080B58AB003
:1032AC0000AFF860B9607A601423FB1802225A60F0
:1032BC001423FB180322DA601423FB1800229A60F3
:1032CC001423FB18802252001A601423FB180022CE
:1032DC001A61124B114A5269802189020A435A61C0
:1032EC000E4B5A6980239B0213403B613B691423AC
:1032FC00FA189023DB0511001800FEF7F7FF074BB7
:10330C00064A526806491140B8687A6802430A4373
:10331C005A60C046BD460AB080BDC046001002408F
:10332C00FFFFFF8080B500AF044B044A1268802178
:10333C0009030A431A60C046BD4680BD0010024016
:10334C0080B500AF044B044A126804490A401A6065
:10335C00C046BD4680BDC04600100240FFFFF7FFCF
:10336C0090B58FB000AF1423FB18374A13CA13C3A0
:10337C0012681A603B1D354A13CA13C312681A60CF
:10338C000023FB620023BB6200237B6300237B6270
:10339C0000233B632E4B5B68FB62FB6A0C221340E1
:1033AC00082B06D00C2B43D0042B44D1294B3B6368
:1033BC0044E0FB6A9B0C0F2213401422BA18D35C16
:1033CC007B62234BDB6A0F2213403A1DD35CBB623A
:1033DC00FA6AC0235B021A4080235B029A4209D12D
:1033EC00B96A1C4803F0E8FD03001A007B6A5343DA
:1033FC007B631AE0FA6AC0235B021A40C0235B02AB
:10340C009A4209D1B96A144803F0D6FD03001A0098
:10341C007B6A53437B6308E0B96A0E4803F0CCFD2A
:10342C0003001A007B6A53437B637B6B3B6305E0B1
:10343C00094B3B6302E0074B3B63C0463B6B1800F8
:10344C00BD460FB090BDC04674720008847200086F
:10345C000010024000127A00006CDC0280B500AF54
:10346C00024B1B681800BD4680BDC04608000020FA
:10347C0080B500AFFFF7F2FF0100064B5B681B0A3B
:10348C0007221340044AD35CD9400B001800BD46F8
:10349C0080BDC046001002402873000880B582B081
:1034AC0000AF78607B681F221A607B681B68202243
:1034BC001A437B681A604E4B1A688023DB021A4051
:1034CC008023DB029A4203D17B6805225A600FE00D
:1034DC00474B1A6880235B021A4080235B029A4296
:1034EC0003D17B6801225A6002E07B6800225A609B
:1034FC003F4B1B6801221340012B03D17B68012237
:10350C00DA6002E07B680022DA60394B1B68DB086A
:10351C001F221A407B681A61354B1B6A0422134028
:10352C00042B03D17B6805229A600CE0304B1B6A9C
:10353C0001221340012B03D17B6801229A6002E027
:10354C007B6800229A602A4B5B6A01221340012B94
:10355C0003D17B680122DA6102E07B680022DA6128
:10356C00234B5B6B01221340012B03D17B6801229F
:10357C005A6102E07B6800225A611D4B5B6BDB08D1
:10358C001F221A407B689A61194B5A6B80235B028D
:10359C0013405A1E9341DBB21A007B681A62144B1B
:1035AC001A6880235B041A4080235B049A4203D17F
:1035BC007B6802225A6202E07B6801225A620C4B41
:1035CC005A68C0235B021A407B689A62084B5A689F
:1035DC00F0239B031A407B68DA62054BDB6A0F22EF
:1035EC001A407B681A63C046BD4602B080BDC04617
:1035FC000010024080B582B000AF786039607B6803
:10360C0007221A600E4B5B6803221A407B685A60D3
:10361C000B4B5B68F0221A407B689A60084B5A6827
:10362C00E023DB001A407B68DA60064B1B68012242
:10363C001A403B681A60C046BD4602B080BDC04609
:10364C00001002400020024080B500AF064B9B6882
:10365C0080221340802B04D100F00AF8034B802207
:10366C001A70C046BD4680BD001002400A100240D0
:10367C0080B500AFC046BD4680BDC04680B586B0A3
:10368C0000AF786000233B610023FB607B681A6805
:10369C0080235B02134000D18EE01723FB1800221D
:1036AC001A706D4BDA6980235B05134011D16A4B9C
:1036BC00694AD269802149050A43DA61664BDA69A5
:1036CC0080235B051340BB60BB681723FB180122EA
:1036DC001A70624B1A6880235B0013401AD15F4B3F
:1036EC005E4A1268802149000A431A60FCF788FD83
:1036FC0003003B6108E0FCF783FD02003B69D31A31
:10370C00642B01D90323A3E0544B1A6880235B007C
:10371C001340F0D0504B1A6AC0239B001340FB603F
:10372C00FB68002B34D07B685A68C0239B001A407E
:10373C00FB689A422CD0484B1B6A494A1340FB60E9
:10374C00454B454A126A802149020A431A62424B90
:10375C00414A126A43490A401A623F4BFA681A629C
:10376C00FB680122134013D0FCF74AFD03003B61B8
:10377C0009E0FCF745FD02003B69D31A3A4A934233
:10378C0001D9032364E0344B1B6A02221340F0D0AE
:10379C00314A314B1B6A324919407B685B680B43D9
:1037AC0013621723FB181B78012B05D12A4B2A4ACD
:1037BC00D2692E490A40DA617B681B6801221340EA
:1037CC0009D0254A244B1B6B03218B4319007B68C2
:1037DC009B680B4313637B681B680222134008D061
:1037EC001D4A1D4B1B6B224919407B68DB680B4340
:1037FC0013637B681A688023DB02134008D0164AD7
:10380C00154B1B6B1B4919407B681B690B431363DE
:10381C007B681B682022134009D00F4A0E4B1B6B90
:10382C0010218B4319007B685B690B4313637B6826
:10383C001A688023DB00134009D0074A064B1B6B28
:10384C0040218B4319007B689B690B431363002356
:10385C001800BD4606B080BD00100240007000404C
:10386C00FFFCFFFFFFFFFEFF88130000FFFFFFEFD1
:10387C00FFFFFCFFFFFFF3FF80B582B000AF786065
:10388C007B68204A1A60204B1A6AC0239B001A409E
:10389C007B685A601C4B1B6B03221A407B689A6036
:1038AC00194B1B6B10221A407B685A617B681B6892
:1038BC0002221A437B681A60134B1A6BC0239B02BB
:1038CC001A407B68DA607B681B688022D2021A433C
:1038DC007B681A600C4B1A6BC0231B031A407B6865
:1038EC001A617B681B688022D2001A437B681A60BD
:1038FC00054B1B6B40221A407B689A61C046BD4643
:10390C0002B080BD210001000010024080B584B0DF
:10391C0000AF78600023FB600023BB607B68202B2A
:10392C0000D1E8E005D8012B49D0022B00D176E07C
:10393C0023E18022520293420AD08022D202934287
:10394C0000D1A3E08022D200934200D1ECE014E13C
:10395C008C4B1A6AC0239B001340BB60BA6880234F
:10396C005B009A4209D1874B1B6A02221340022B3F
:10397C0003D180231B02FB6020E0BA6880239B00EC
:10398C009A4208D17F4B5B6A02221340022B02D170
:10399C007D4BFB6012E0BA68C0239B009A4200D0BA
:1039AC00E0E0784B1A6880239B021A4080239B022C
:1039BC009A4200D0D6E0754BFB60D3E0D2E0714B5D
:1039CC001B6B03221340BB60BB68002B04D1FFF7B9
:1039DC004FFD0300FB60C7E0BB68032B08D1694BAC
:1039EC001B6802221340022B02D1694BFB60BBE027
:1039FC00BB68012B04D1FFF7B3FC0300FB60B3E001
:103A0C00BB68022B00D0AFE05E4B1B6A0222134056
:103A1C00022B00D0A8E080231B02FB60A4E0594BD2
:103A2C001A6BC0239B021340BB60BB68002B04D1F4
:103A3C00FFF71EFD0300FB6098E0BA68C0239B02F1
:103A4C009A4208D14F4B1B6802221340022B02D121
:103A5C004F4BFB608AE0BA6880235B029A4204D128
:103A6C00FFF77EFC0300FB6080E0BA6880239B02BA
:103A7C009A4200D07AE0434B1B6A02221340022B7D
:103A8C0000D073E080231B02FB606FE03D4B1A6B90
:103A9C00C0231B031340BB60BB68002B04D1FFF792
:103AAC00E7FC0300FB6063E0BA68C0231B039A4287
:103ABC0008D1344B1B6802221340022B02D1344B29
:103ACC00FB6055E0BA688023DB029A4204D1FFF711
:103ADC0047FC0300FB604BE0BA6880231B039A424F
:103AEC0046D1284B1B6A02221340022B40D1802363
:103AFC001B02FB603CE0234B1B6B10221340BB6092
:103B0C00BB68002B08D11F4B1B6802221340022BF1
:103B1C0002D11F4BFB602DE0BB68102B2AD1FFF7A5
:103B2C001FFC0300FB6025E0164B1B6B402213406F
:103B3C00BB60BB68002B08D1124B1B6802221340E0
:103B4C00022B02D1124BFB6016E0BB68402B13D149
:103B5C000C4B1B6A02221340022B0DD180231B023B
:103B6C00FB6009E0C04608E0C04606E0C04604E041
:103B7C00C04602E0C04600E0C046FB681800BD46E7
:103B8C0004B080BD00100240409C000090D00300A7
:103B9C0000127A0080B584B000AF78600023FB601F
:103BAC001B4B1B4A1269802109050A431A61184BE9
:103BBC00174A126917490A401A617B681A687B68B0
:103BCC005B681A437B689B681343FB607B68DB680C
:103BDC00FA681343FB607B681B691B04FA68134388
:103BEC00FB600D4BFA685A600B4A0B4B1B680B4978
:103BFC0019407B685B691B020B431360064B064A3A
:103C0C00126860210A431A60C046BD4604B080BDEC
:103C1C0000100240FFFFFFF7006C0040FFC0FFFFE9
:103C2C0080B500AF044B044A126880210A431A6025
:103C3C00C046BD4680BDC046006C004080B582B019
:103C4C0000AF78600F4B5B681B041A0C7B681A6022
:103C5C000C4B1B681B0A3F221A407B685A60094BAD
:103C6C009B681B0C1B041A0C7B689A60054B9A68AA
:103C7C0080231B021A407B68DA60C046BD4602B046
:103C8C0080BDC046006C004080B584B000AF786049
:103C9C000023FB600023BB60FCF7B2FA0300BB609F
:103CAC007B6801330CD07B68002B07D0FCF7A8FA9B
:103CBC000200BB68D21A7B689A4201D90123FB60CF
:103CCC002D4B9B6801221340012B06D1FB6802226D
:103CDC001343FB60284B0122DA60274B9B680222BE
:103CEC001340022B06D1FB6804221343FB60224BCA
:103CFC000222DA60204B9A688023DB001A40802372
:103D0C00DB009A4206D1FB6820221343FB601A4B5E
:103D1C000422DA60184B9A6880235B001A408023D7
:103D2C005B009A4206D1FB6808221343FB60124BDE
:103D3C000422DA60104B9A6880239B001A4080237F
:103D4C009B009A4206D1FB6810221343FB600A4B7E
:103D5C000422DA60084B9B6808221340082B02D11E
:103D6C00054B0822DA60FB68002B99D0FB68180021
:103D7C00BD4604B080BDC046006C004080B584B028
:103D8C0000AF0023FB602F4B9B68BB602D4B1B6867
:103D9C007B60BB680122134009D07B680122134071
:103DAC0005D0284B0122DA6000F04EF846E0BB68E3
:103DBC000222134009D07B680222134005D0214B0C
:103DCC000222DA6000F045F838E0BB6808221340A4
:103DDC0009D07B680822134005D01A4B0822DA6000
:103DEC0000F03CF82AE0BB680422134026D07B6824
:103DFC000422134022D0BA6880235B00134003D006
:103E0C00FB6808221343FB60BA6880239B001340B5
:103E1C0003D0FB6810221343FB60BA688023DB00DD
:103E2C00134003D0FB6820221343FB60054B042294
:103E3C00DA60FB68180000F016F8FFE7C046BD46D4
:103E4C0004B080BD006C004080B500AFC046BD46DC
:103E5C0080BD80B500AFC046BD4680BD80B500AF0B
:103E6C00C046BD4680BD80B582B000AF7860C0460C
:103E7C00BD4602B080BDC04680B582B000AF786050
:103E8C007B68002B01D1012344E07B685B6F002B26
:103E9C0007D17B687022002199547B68180002F0CE
:103EAC004FFF7B6824225A677B681B687A6812680C
:103EBC00126801218A431A607B68180001F037FCF4
:103ECC000300012B01D1012324E07B685B6A002BEA
:103EDC0003D07B68180001F057FE7B681B687A687A
:103EEC00126852680D490A405A607B681B687A68F0
:103EFC00126892682A218A439A607B681B687A68E8
:103F0C001268126801210A431A607B68180001F0DC
:103F1C00E7FE03001800BD4602B080BDFFB7FFFFEF
:103F2C0080B582B000AF78607B68002B01D1012393
:103F3C004CE07B685B6F002B07D17B687022002103
:103F4C0099547B68180002F0FBFE7B6824225A67A8
:103F5C007B681B687A681268126801218A431A60B0
:103F6C007B68180001F0E3FB0300012B01D1012356
:103F7C002CE07B685B6A002B03D07B68180001F097
:103F8C0003FE7B681B687A681268526811490A4004
:103F9C005A607B681B687A681268926822218A438F
:103FAC009A607B681B687A681268926808210A43D9
:103FBC009A607B681B687A681268126801210A4350
:103FCC001A607B68180001F08BFE03001800BD46D8
:103FDC0002B080BDFFB7FFFF80B582B000AF786044
:103FEC0039607B68002B01D1012366E07B68DA69BC
:103FFC0080231B029A4201D101235EE07B689B68FF
:10400C00002B01D0012358E07B685B6F002B07D19C
:10401C007B687022002199547B68180002F090FE96
:10402C007B6824225A677B681B687A68126812685E
:10403C0001218A431A607B68180001F078FB0300A9
:10404C00012B01D1012338E07B685B6A002B03D084
:10405C007B68180001F098FD7B681B687A68126811
:10406C00526818490A405A607B681B687A68126863
:10407C0092682A218A439A607B681B687A68126866
:10408C0052688021C9010A435A607B681B687A68B0
:10409C001268526820218A4311003A680A435A6018
:1040AC007B681B687A681268126801210A431A60DF
:1040BC007B68180001F014FE03001800BD4602B026
:1040CC0080BDC046FFB7FFFF80B584B000AFF8607D
:1040DC007A600B23FB180A1C1A70FB68002B01D1A9
:1040EC00012360E0FB685B6F002B07D1FB6870223B
:1040FC0000219954FB68180002F022FEFB68242270
:10410C005A67FB681B68FA681268126801218A43B7
:10411C001A60FB68180001F00AFB0300012B01D1A7
:10412C00012340E0FB685B6A002B03D0FB6818009E
:10413C0001F02AFDFB681B68FA68126852681C497A
:10414C000A405A60FB681B68FA68126892682A2158
:10415C008A439A607A6880231B019A420CD1FB68CF
:10416C001B68FA68126852681202110A0B22BA18FC
:10417C00127812060A435A60FB681B68FA681268C8
:10418C0012680C4911407A680A431A60FB681B6874
:10419C00FA681268126801210A431A60FB68180059
:1041AC0001F09EFD03001800BD4604B080BDC04662
:1041BC00FFB7FFFFFFF7FFFF80B582B000AF78605D
:1041CC007B68002B01D1012328E07B6824225A67ED
:1041DC007B681B687A681268126801218A431A602E
:1041EC007B681B6800221A607B681B6800225A607F
:1041FC007B681B6800229A607B68180002F0FAFD4D
:10420C007B680022DA677B6800225A677B68002291
:10421C009A677B6870220021995400231800BD46D0
:10422C0002B080BD80B582B000AF7860C046BD469C
:10423C0002B080BD80B582B000AF7860C046BD468C
:10424C0002B080BD80B58AB002AFF860B9603B6047
:10425C00BB1D1A80FB685B6F202B00D095E0BB6800
:10426C00002B03D0BB1D1B88002B01D101238DE03B
:10427C00FB689A6880235B019A4209D1FB681B6931
:10428C00002B05D1BB680122134001D001237DE036
:10429C00FB6870229B5C012B01D1022376E0FB684A
:1042AC00702201219954FB680022DA67FB682122F5
:1042BC005A67FBF7A5FF03007B61FB68BA1D502111
:1042CC0012885A52FB68BA1D522112885A52FB6846
:1042DC009A6880235B019A4208D1FB681B69002B0A
:1042EC0004D10023FB61BB68BB6103E0BB68FB61CD
:1042FC000023BB612DE07A69F8683B6800931300DA
:10430C000022802101F032FD031E01D003233DE089
:10431C00FB69002B0BD1FB681B68BA691288D205AC
:10432C00D20D92B21A85BB690233BB6108E0FB68FF
:10433C001B68FA69127892B21A85FB690133FB612A
:10434C00FB6852229B5A9BB2013B99B2FB685222EA
:10435C009952FB6852229B5A9BB2002BCBD17A69A3
:10436C00F8683B68009313000022402101F0FEFC2A
:10437C00031E01D0032309E0FB6820225A67FB6867
:10438C00702200219954002300E002231800BD463E
:10439C0008B080BD80B58AB002AFF860B9603B60F0
:1043AC00BB1D1A80FB689B6F202B00D0D6E0BB682E
:1043BC00002B03D0BB1D1B88002B01D10123CEE0A9
:1043CC00FB689A6880235B019A4209D1FB681B69E0
:1043DC00002B05D1BB680122134001D00123BEE0A4
:1043EC00FB6870229B5C012B01D10223B7E0FB68B8
:1043FC00702201219954FB680022DA67FB682222A3
:10440C009A67FBF7FDFE03007B61FB68BA1D582120
:10441C0012885A52FB68BA1D5A2112885A52FB68EC
:10442C009A6880235B019A420DD1FB681B69002BB3
:10443C0004D1FB685C224C4999522EE0FB685C224B
:10444C00FF21995229E0FB689B68002B0DD1FB687A
:10445C001B69002B04D1FB685C22FF2199521CE0E4
:10446C00FB685C227F21995217E0FB689A688023D5
:10447C005B059A420DD1FB681B69002B04D1FB68CC
:10448C005C227F21995208E0FB685C223F21995203
:10449C0003E0FB685C22002199521223FB18FA6896
:1044AC005C21525A1A80FB689A6880235B019A42FD
:1044BC0008D1FB681B69002B04D10023FB61BB688E
:1044CC00BB6103E0BB68FB610023BB6137E07A6929
:1044DC00F8683B68009313000022202101F046FC91
:1044EC00031E01D003233AE0FB69002B0ED1FB68BD
:1044FC001B689B8C9BB21222BA18128813409AB27A
:10450C00BB691A80BB690233BB610FE0FB681B6897
:10451C009B8C9BB2DBB21222BA181288D2B2134017
:10452C00DAB2FB691A70FB690133FB61FB685A2232
:10453C009B5A9BB2013B99B2FB685A229952FB6879
:10454C005A229B5A9BB2002BC1D1FB6820229A673E
:10455C00FB68702200219954002300E0022318000C
:10456C00BD4608B080BDC046FF01000080B584B0D8
:10457C0000AFF860B960BB1D1A80FB685B6F202B25
:10458C0058D1BB68002B03D0BB1D1B88002B01D15D
:10459C00012350E0FB689A6880235B019A4209D1A1
:1045AC00FB681B69002B05D1BB680122134001D0AD
:1045BC00012340E0FB6870229B5C012B01D102239C
:1045CC0039E0FB68702201219954FB68BA68DA64FF
:1045DC00FB68BA1D502112885A52FB68BA1D522131
:1045EC0012885A52FB6800225A66FB680022DA676E
:1045FC00FB6821225A67FB689A6880235B019A4208
:10460C0007D1FB681B69002B03D1FB680C4A5A6667
:10461C0002E0FB680B4A5A66FB6870220021995431
:10462C00FB681B68FA681268126880210A431A60DA
:10463C00002300E002231800BD4604B080BDC04634
:10464C0037620008C761000880B584B000AFF8601D
:10465C00B960BB1D1A80FB689B6F202B00D09FE0BC
:10466C00BB68002B03D0BB1D1B88002B01D1012381
:10467C0097E0FB689A6880235B019A4209D1FB683A
:10468C001B69002B05D1BB680122134001D001230B
:10469C0087E0FB6870229B5C012B01D1022380E038
:1046AC00FB68702201219954FB68BA685A65FB6853
:1046BC00BA1D582112885A52FB68BA1D5A21128809
:1046CC005A52FB6800221A66FB689A6880235B01C9
:1046DC009A420DD1FB681B69002B04D1FB685C224C
:1046EC00324999522EE0FB685C22FF21995229E055
:1046FC00FB689B68002B0DD1FB681B69002B04D158
:10470C00FB685C22FF2199521CE0FB685C227F2134
:10471C00995217E0FB689A6880235B059A420DD189
:10472C00FB681B69002B04D1FB685C227F2199522A
:10473C0008E0FB685C223F21995203E0FB685C2295
:10474C0000219952FB680022DA67FB6822229A67E3
:10475C00FB681B68FA681268926801210A439A6028
:10476C00FB689A6880235B019A4207D1FB681B693E
:10477C00002B03D1FB680E4A1A6602E0FB680D4A57
:10478C001A66FB68702200219954FB681B68FA6852
:10479C0012681268902149000A431A60002300E055
:1047AC0002231800BD4604B080BDC046FF010000C6
:1047BC00A1630008E362000880B584B000AFF86024
:1047CC00B960BB1D1A80FB685B6F202B00D077E0B3
:1047DC00BB68002B03D0BB1D1B88002B01D1012310
:1047EC006FE0FB689A6880235B019A4209D1FB68F1
:1047FC001B69002B05D1BB680122134001D001239A
:10480C005FE0FB6870229B5C012B01D1022358E016
:10481C00FB68702201219954FB68BA68DA64FB6862
:10482C00BA1D502112885A52FB68BA1D52211288A7
:10483C005A52FB680022DA67FB6821225A67FB6830
:10484C009B6E002B2AD0FB689B6E204A9A62FB68F9
:10485C009B6E1F4ADA62FB689B6E1E4A1A63FB68EA
:10486C009B6E00225A63FB68986EFB68DB6C190028
:10487C00FB681B6828331A00BB1D1B88FDF7F0F979
:10488C00031E0BD0FB681022DA67FB687022002134
:10489C009954FB6820225A67012312E0FB681B68BD
:1048AC0040221A62FB68702200219954FB681B6835
:1048BC00FA681268926880210A439A60002300E02B
:1048CC0002231800BD4604B080BDC046DD5E000862
:1048DC002D5F0008D35F000880B584B000AFF8608E
:1048EC00B960BB1D1A80FB689B6F202B00D07FE04A
:1048FC00BB68002B03D0BB1D1B88002B01D10123EF
:10490C0077E0FB689A6880235B019A4209D1FB68C7
:10491C001B69002B05D1BB680122134001D0012378
:10492C0067E0FB6870229B5C012B01D1022360E0E5
:10493C00FB68702201219954FB68BA685A65FB68C0
:10494C00BA1D582112885A52FB680022DA67FB689C
:10495C0022229A67FB68DB6E002B2AD0FB68DB6E89
:10496C00264A9A62FB68DB6E254ADA62FB68DB6ECC
:10497C00244A1A63FB68DB6E00225A63FB68D86E0C
:10498C00FB681B6824331900FB685B6D1A00BB1DA8
:10499C001B88FDF765F9031E0BD0FB681022DA6744
:1049AC00FB68702200219954FB6820225A6701236E
:1049BC001FE0FB68702200219954FB681B68FA68A1
:1049CC0012681268802149000A431A60FB681B6850
:1049DC00FA681268926801210A439A60FB681B68A6
:1049EC00FA681268926840210A439A60002300E03A
:1049FC0002231800BD4604B080BDC0464B5F0008C2
:104A0C00B55F0008D35F000880B584B000AF786054
:104A1C007B685B6FFB607B689B6FBB607B68702205
:104A2C009B5C012B01D102233CE07B6870220121AD
:104A3C0099547B681B689B6880221340802B0AD199
:104A4C00FB68212B07D17B681B687A681268926817
:104A5C0080218A439A607B681B689B6840221340C4
:104A6C00402B1AD1BB68222B17D17B681B687A6844
:104A7C00126812680D490A401A607B681B687A68D4
:104A8C001268926801218A439A607B681B687A6875
:104A9C001268926840218A439A607B6870220021D8
:104AAC00995400231800BD4604B080BDFFFEFFFFE3
:104ABC0080B582B000AF78607B6870229B5C012B64
:104ACC0001D1022335E07B687022012199547B6867
:104ADC005B6F212B07D17B681B687A681268926820
:104AEC0080210A439A607B689B6F222B1CD17B68C8
:104AFC001B6808221A627B681B687A681268126845
:104B0C00802149000A431A607B681B687A68126826
:104B1C00926801210A439A607B681B687A68126864
:104B2C00926840210A439A607B6870220021995454
:104B3C0000231800BD4602B080BD80B584B000AF24
:104B4C0078607B685B6FFB607B689B6FBB607B688E
:104B5C001B689B6880221340802B26D1FB68212B7D
:104B6C0023D17B681B687A681268926880218A431B
:104B7C009A607B689B6E002B13D07B689B6E180031
:104B8C00FDF7D4F8031E0CD07B689B6E1800FDF764
:104B9C003DFB0300202B04D17B681022DA67032332
:104BAC0032E07B68180001F05FF97B681B689B683A
:104BBC0040221340402B26D1BB68222B23D17B688B
:104BCC001B687A681268926840218A439A607B68F5
:104BDC00DB6E002B13D07B68DB6E1800FDF7A6F89C
:104BEC00031E0CD07B68DB6E1800FDF70FFB030077
:104BFC00202B04D17B681022DA67032304E07B6846
:104C0C00180001F044F900231800BD4604B080BD23
:104C1C0080B582B000AF78607B681B687A681268D8
:104C2C00126841490A401A607B681B687A681268EE
:104C3C00926801218A439A607B681B689B6880227A
:104C4C001340802B23D17B681B687A6812689268AA
:104C5C0080218A439A607B689B6E002B17D07B68FF
:104C6C009B6E00225A637B689B6E1800FDF75EF802
:104C7C00031E0CD07B689B6E1800FDF7C7FA03006F
:104C8C00202B04D17B681022DA67032348E07B6871
:104C9C001B689B6840221340402B23D17B681B6808
:104CAC007A681268926840218A439A607B68DB6E4E
:104CBC00002B17D07B68DB6E00225A637B68DB6E9F
:104CCC001800FDF733F8031E0CD07B68DB6E180060
:104CDC00FDF79CFA0300202B04D17B681022DA67C5
:104CEC0003231DE07B685222002199527B685A22D3
:104CFC00002199527B681B680F221A627B681B6823
:104D0C007A681268926908210A439A617B682022AA
:104D1C005A677B6820229A677B680022DA67002337
:104D2C001800BD4602B080BD1FFEFFFF80B582B0EB
:104D3C0000AF78607B681B687A6812681268C021C3
:104D4C008A431A607B681B689B6880221340802B07
:104D5C0023D17B681B687A681268926880218A4329
:104D6C009A607B689B6E002B17D07B689B6E002231
:104D7C005A637B689B6E1800FCF7D8FF031E0CD09F
:104D8C007B689B6E1800FDF741FA0300202B04D1C1
:104D9C007B681022DA67032307E07B68522200212C
:104DAC0099527B6820225A6700231800BD4602B036
:104DBC0080BD80B582B000AF78607B681B687A6874
:104DCC001268126826490A401A607B681B687A6868
:104DDC001268926801218A439A607B681B689B6801
:104DEC0040221340402B23D17B681B687A681268E1
:104DFC00926840218A439A607B68DB6E002B17D047
:104E0C007B68DB6E00225A637B68DB6E1800FCF754
:104E1C008DFF031E0CD07B68DB6E1800FDF7F6F9D6
:104E2C000300202B04D17B681022DA67032313E0E4
:104E3C007B685A22002199527B681B680F221A62E8
:104E4C007B681B687A681268926908210A439A6128
:104E5C007B6820229A6700231800BD4602B080BDF3
:104E6C00DFFEFFFF80B584B000AF78600123FB60EC
:104E7C007B681B687A681268126853490A401A608A
:104E8C007B681B687A681268926801218A439A6071
:104E9C007B689B6E002B0FD07B681B689B68802205
:104EAC001340802B04D17B689B6E484A5A6303E005
:104EBC007B689B6E00225A637B68DB6E002B0FD0E5
:104ECC007B681B689B6840221340402B04D17B6895
:104EDC00DB6E3F4A5A6303E07B68DB6E00225A6349
:104EEC007B681B689B6880221340802B19D17B68E0
:104EFC001B687A681268926880218A439A607B6882
:104F0C009B6E002B0DD07B689B6E1800FCF746FF48
:104F1C00031E04D07B689B6E00225A6301E00023C1
:104F2C00FB607B681B689B6840221340402B1BD1A5
:104F3C007B681B687A681268926840218A439A6081
:104F4C007B68DB6E002B0FD07B68DB6E1800FCF7E8
:104F5C0025FF031E06D07B68DB6E00225A630123FB
:104F6C00FB6001E00023FB60FB68012B26D17B6812
:104F7C005222002199527B685A22002199527B6857
:104F8C0000221A667B6800225A667B680022DA6768
:104F9C007B681B680F221A627B681B687A68126830
:104FAC00926908210A439A617B6820225A677B68C0
:104FBC0020229A677B68180000F036FA002318004C
:104FCC00BD4604B080BDC0461FFEFFFF7F600008D9
:104FDC00E360000880B582B000AF78607B681B6826
:104FEC007A6812681268C0218A431A607B681B6851
:104FFC009B6880221340802B2DD17B681B687A68BC
:10500C001268926880218A439A607B689B6E002BA1
:10501C0012D07B689B6E194A5A637B689B6E180092
:10502C00FCF7BCFE031E24D07B689B6E5A6B7B681E
:10503C009B6E180090471CE07B685222002199520D
:10504C007B6800225A667B6820225A677B681800AE
:10505C0000F0F2F90DE07B685222002199527B6836
:10506C0000225A667B6820225A677B68180000F081
:10507C00E3F900231800BD4602B080BD576100085B
:10508C0080B582B000AF78607B681B687A68126864
:10509C00126831490A401A607B681B687A6812688A
:1050AC00926801218A439A607B681B689B68402246
:1050BC001340402B39D17B681B687A681268926860
:1050CC0040218A439A607B68DB6E002B12D07B6890
:1050DC00DB6E224A5A637B68DB6E1800FCF75EFEBF
:1050EC00031E34D07B68DB6E5A6B7B68DB6E18005A
:1050FC0090472CE07B685A22002199527B68002251
:10510C005A657B681B680F221A627B681B687A6879
:10511C001268926908210A439A617B6820229A6777
:10512C007B68180000F090F911E07B685A2200218E
:10513C0099527B6800225A657B681B680F221A62A1
:10514C007B6820229A677B68180000F07DF90023A9
:10515C001800BD4602B080BDDFFEFFFF8361000872
:10516C0080B588B000AF78607B681B68DB69FB6139
:10517C007B681B681B68BB617B681B689B687B61D9
:10518C00FB69934A13403B613B69002B12D1FB69CD
:10519C00202213400ED0BB69202213400AD07B681A
:1051AC001B6E002B00D10BE17B681B6E7A68100024
:1051BC00984705E13B69002B00D1CDE07B690122CA
:1051CC00134005D1BA6990235B00134000D1C3E0B2
:1051DC00FB69012213400ED0BA6980235B00134097
:1051EC0009D07B681B6801221A627B68DB6F012285
:1051FC001A437B68DA67FB69022213400DD07B6986
:10520C000122134009D07B681B6802221A627B685A
:10521C00DB6F04221A437B68DA67FB6904221340B4
:10522C000DD07B690122134009D07B681B680422D6
:10523C001A627B68DB6F02221A437B68DA67FB69B0
:10524C000822134011D0BB692022134003D17B6983
:10525C000122134009D07B681B6808221A627B6804
:10526C00DB6F08221A437B68DA67FA6980231B011B
:10527C0013400FD0BA698023DB0413400AD07B683B
:10528C001B68802212011A627B68DB6F20221A4392
:10529C007B68DA677B68DB6F002B00D192E0FB69DF
:1052AC00202213400CD0BB692022134008D07B680D
:1052BC001B6E002B04D07B681B6E7A68100098471D
:1052CC007B68DB6FFB607B681B689B68402213402C
:1052DC00402B03D0FB682822134033D07B68180086
:1052EC0000F0D5FD7B681B689B6840221340402B67
:1052FC0023D17B681B687A681268926840218A43C4
:10530C009A607B68DB6E002B12D07B68DB6E314AB7
:10531C005A637B68DB6E1800FCF740FD031E19D046
:10532C007B68DB6E5A6B7B68DB6E1800904711E074
:10533C007B68180000F070F80CE07B68180000F037
:10534C006BF807E07B68180000F066F87B680022B9
:10535C00DA6737E0C04635E0FA6980235B03134017
:10536C000ED07A698023DB03134009D07B681B685D
:10537C00802252031A627B68180001F0D7F824E0EF
:10538C00FB69802213400DD0BB698022134009D0E9
:10539C007B685B6E002B17D07B685B6E7A681000A5
:1053AC00984711E0FB69402213400ED0BB694022A4
:1053BC0013400AD07B68180000F073FFC04604E06D
:1053CC00C04602E0C04600E0C046BD4608B080BD05
:1053DC000F0800005160000880B582B000AF786003
:1053EC00C046BD4602B080BD80B582B000AF7860CB
:1053FC00C046BD4602B080BD80B582B000AF7860BB
:10540C00C046BD4602B080BD80B582B000AF7860AA
:10541C00C046BD4602B080BD80B582B000AF78609A
:10542C00C046BD4602B080BD80B582B000AF78608A
:10543C00C046BD4602B080BD80B582B000AF78607A
:10544C00C046BD4602B080BD80B582B000AF78606A
:10545C00C046BD4602B080BD80B582B000AF78605A
:10546C0039607B681B687A6812685269120E1106E3
:10547C003A680A435A61C046BD4602B080BD80B549
:10548C0082B000AF78607B685B6F202B1FD17B688C
:10549C0070229B5C012B01D1022319E07B687022E6
:1054AC00012199547B6824225A677B681B687A68AF
:1054BC0012685268802109040A435A607B682022D2
:1054CC005A677B68702200219954002300E0022364
:1054DC001800BD4602B080BD80B582B000AF7860C8
:1054EC007B685B6F202B1ED17B6870229B5C012B31
:1054FC0001D1022318E07B687022012199547B684A
:10550C0024225A677B681B687A68126852680849BB
:10551C000A405A607B6820225A677B6870220021FF
:10552C009954002300E002231800BD4602B080BD50
:10553C00FFFF7FFF80B582B000AF78607B68702280
:10554C009B5C012B01D1022317E07B6870220121A7
:10555C0099547B6824225A677B681B687A681268A6
:10556C001268802189010A431A607B6820225A67DD
:10557C007B68180000F0B4FB03001800BD4602B0B5
:10558C0080BD80B582B000AF78607B6870229B5C78
:10559C00012B01D1022316E07B6870220121995462
:1055AC007B6824225A677B681B687A6812681268C9
:1055BC0007490A401A607B6820225A677B681800EA
:1055CC0000F08EFB03001800BD4602B080BDC04643
:1055DC00FFDFFFFF80B582B000AF78607B681B688F
:1055EC007A681268926904210A439A61C046BD46E2
:1055FC0002B080BD80B582B000AF78607B6870224D
:10560C009B5C012B01D102231EE07B6870220121DF
:10561C0099547B6824225A677B681B687A681268E5
:10562C0012680C218A431A607B681B687A681268BE
:10563C00126808210A431A607B6820225A677B682B
:10564C0070220021995400231800BD4602B080BD81
:10565C0080B582B000AF78607B6870229B5C012BB8
:10566C0001D102231EE07B687022012199547B68D2
:10567C0024225A677B681B687A68126812680C21AE
:10568C008A431A607B681B687A6812681268042166
:10569C000A431A607B6820225A677B6870220021BB
:1056AC00995400231800BD4602B080BD80B582B06D
:1056BC0000AF78607B6870229B5C012B01D10223C8
:1056CC0016E07B687022012199547B6824225A676A
:1056DC007B681B687A681268926902210A439A6196
:1056EC007B6820225A677B68702200219954002322
:1056FC001800BD4602B080BD80B584B000AF7860A4
:10570C007B685B6FFB607B689B6FBB60FA68BB68F8
:10571C0013431800BD4604B080BD80B582B000AF05
:10572C0078607B68DB6F1800BD4602B080BD80B529
:10573C0088B000AF78600023BB611723FB180022F0
:10574C001A707B689A687B681B691A437B685B6973
:10575C001A437B68DB6913433B617B681B687A687F
:10576C0012681268C44911403A690A431A607B688E
:10577C001B687A6812685268C04911407A68D2680E
:10578C000A435A607B689B693B617B681B6A3A6978
:10579C0013433B617B681B687A6812689268B8494E
:1057AC0011403A690A439A607B681B68B54A934278
:1057BC0025D1B54B1B6B03221340012B0FD004D307
:1057CC00022B11D0032B05D013E01F23FB18002252
:1057DC001A70BAE01F23FB1802221A70B5E01F23BF
:1057EC00FB1804221A70B0E01F23FB1808221A7051
:1057FC00ABE01F23FB1810221A70C046A5E07B6893
:10580C001B68A24A934232D19F4B1A6BC0239B0256
:10581C00134080225202934219D0802252029342AA
:10582C0002D8002B09D01CE080229202934213D0A4
:10583C00C0229202934205D013E01F23FB180022D2
:10584C001A7082E01F23FB1802221A707DE01F23BE
:10585C00FB1804221A7078E01F23FB1808221A7018
:10586C0073E01F23FB1810221A70C0466DE07B6892
:10587C001B68874A934232D1834B1A6BC0231B039C
:10588C0013408022D202934219D08022D20293423A
:10589C0002D8002B09D01CE080221203934213D0B3
:1058AC00C0221203934205D013E01F23FB180022E1
:1058BC001A704AE01F23FB1802221A7045E01F23BE
:1058CC00FB1804221A7040E01F23FB1808221A70E0
:1058DC003BE01F23FB1810221A70C04635E07B6892
:1058EC001B686C4A934204D11F23FB1800221A70C8
:1058FC002BE07B681B68684A934204D11F23FB187A
:10590C0000221A7021E07B681B68644A934204D120
:10591C001F23FB1800221A7017E07B681B68604A73
:10592C00934204D11F23FB1800221A700DE07B68F0
:10593C001B685C4A934204D11F23FB1800221A7087
:10594C0003E01F23FB1810221A707B68DA6980238E
:10595C001B029A4200D080E01F23FB181B78022BFD
:10596C001CD002DC002B05D04BE0042B25D0082BDF
:10597C0037D046E0FDF77CFD0300FB60FB685A0066
:10598C007B685B685B08D2187B685B681900100049
:10599C0001F012FB03009BB2BB6137E07B685B68D4
:1059AC005B08414A9A187B685B681900100001F08B
:1059BC0003FB03009BB2BB6128E0FDF7D1FC0300A5
:1059CC00FB60FB685A007B685B685B08D2187B68DD
:1059DC005B681900100001F0EFFA03009BB2BB6189
:1059EC0014E07B685B685B08802252029A187B6823
:1059FC005B681900100001F0DFFA03009BB2BB6179
:105A0C0004E01723FB1801221A70C046BB690F2B48
:105A1C001ED9BB69254A93421AD8BB699AB20A238C
:105A2C00FB180F218A431A80BB695B089BB20722C3
:105A3C00134099B20A23FB180A22BA1812880A4397
:105A4C001A807B681B680A22BA181288DA6089E00F
:105A5C001723FB1801221A7084E01F23FB181B78F4
:105A6C00022B38D002DC002B22D066E0042B41D074
:105A7C00082B52D061E0C046F369FFEFFFCFFFFF68
:105A8C00FFF4FFFF003801400010024000440040CA
:105A9C0000480040004C0040005000400014014001
:105AAC0000180140001C01400024F400FFFF00001E
:105ABC00FDF7DEFC0300FB607B685B685A08FB6843
:105ACC00D2187B685B681900100001F075FA0300AE
:105ADC009BB2BB6136E07B685B685B08284A9A180E
:105AEC007B685B681900100001F066FA03009BB23A
:105AFC00BB6127E0FDF734FC0300FB607B685B684F
:105B0C005A08FB68D2187B685B681900100001F01A
:105B1C0053FA03009BB2BB6114E07B685B685B08C3
:105B2C00802212029A187B685B681900100001F041
:105B3C0043FA03009BB2BB6104E01723FB1801225C
:105B4C001A70C046BB690F2B08D9BB690D4A93422A
:105B5C0004D87B681B68BA69DA6003E01723FB186A
:105B6C0001221A707B6800221A667B6800225A6632
:105B7C001723FB181B781800BD4608B080BDC04623
:105B8C0000127A00FFFF000080B582B000AF786091
:105B9C007B685B6A012213400AD07B681B687A68B9
:105BAC0012685268454911407A68926A0A435A60F1
:105BBC007B685B6A022213400AD07B681B687A6898
:105BCC00126852683E4911407A68D26A0A435A6098
:105BDC007B685B6A042213400AD07B681B687A6876
:105BEC0012685268374911407A68126B0A435A603E
:105BFC007B685B6A082213400AD07B681B687A6852
:105C0C0012685268304911407A68526B0A435A60E4
:105C1C007B685B6A102213400AD07B681B687A6829
:105C2C0012689268294911407A68926B0A439A600B
:105C3C007B685B6A202213400AD07B681B687A68F9
:105C4C0012689268224911407A68D26B0A439A60B2
:105C5C007B685B6A402213401BD07B681B687A68A8
:105C6C00126852681B4911407A68126C0A435A60D8
:105C7C007B681A6C80235B039A420AD17B681B6891
:105C8C007A6812685268144911407A68526C0A4357
:105C9C005A607B685B6A802213400AD07B681B6861
:105CAC007A68126852680D4911407A68926C0A43FE
:105CBC005A60C046BD4602B080BDC046FFFFFDFF26
:105CCC00FFFFFEFFFFFFFBFFFF7FFFFFFFEFFFFF6D
:105CDC00FFDFFFFFFFFFEFFFFFFF9FFFFFFFF7FF60
:105CEC0080B586B002AF78607B680022DA67FAF77D
:105CFC0087FA0300FB607B681B681B680822134053
:105D0C00082B0DD1FA68802399037868164B009301
:105D1C001300002200F02AF8031E01D003231FE019
:105D2C007B681B681B6804221340042B0DD1FA6896
:105D3C008023D90378680C4B00931300002200F0E9
:105D4C0015F8031E01D003230AE07B6820225A6752
:105D5C007B6820229A677B6870220021995400236B
:105D6C001800BD4604B080BDFFFFFF0180B584B0B4
:105D7C0000AFF860B9603B60FB1D1A705DE0BB6959
:105D8C0001335AD0FAF73CFA02003B68D21ABB69CD
:105D9C009A4202D8BB69002B1BD1FB681B68FA68BE
:105DAC00126812682F490A401A60FB681B68FA686F
:105DBC001268926801218A439A60FB6820225A6714
:105DCC00FB6820229A67FB687022002199540323F8
:105DDC0043E0FB681B681B68042213402DD0FB6852
:105DEC001B68DA6980231B011A4080231B019A422D
:105DFC0023D1FB681B68802212011A62FB681B68A6
:105E0C00FA681268126817490A401A60FB681B6826
:105E1C00FA681268926801218A439A60FB68202212
:105E2C005A67FB6820229A67FB682022DA67FB68B6
:105E3C0070220021995403230FE0FB681B68DB6977
:105E4C00BA681A40BB68D31A5A425341DBB21A00E3
:105E5C00FB1D1B789A4292D000231800BD4604B05B
:105E6C0080BDC0465FFEFFFF80B582B000AF78609A
:105E7C007B681B687A6812681268C0218A431A60B2
:105E8C007B6820225A67C046BD4602B080BD80B5F3
:105E9C0082B000AF78607B681B687A681268126801
:105EAC000A490A401A607B681B687A681268926813
:105EBC0001218A439A607B6820229A677B680022C2
:105ECC001A66C046BD4602B080BDC046DFFEFFFF6D
:105EDC0080B584B000AF78607B685B6AFB607B68E0
:105EEC009B69202B14D0FB68522200219952FB682D
:105EFC001B68FA681268926880218A439A60FB6872
:105F0C001B68FA681268126840210A431A6003E0A1
:105F1C00FB681800FFF760FAC046BD4604B080BDB0
:105F2C0080B584B000AF78607B685B6AFB60FB680F
:105F3C001800FFF759FAC046BD4604B080BD80B5C5
:105F4C0084B000AF78607B685B6AFB607B689B69A0
:105F5C00202B1ED0FB685A2200219952FB681B682B
:105F6C00FA68126812680F490A401A60FB681B68CD
:105F7C00FA681268926801218A439A60FB681B6870
:105F8C00FA681268926840218A439A60FB68202262
:105F9C009A67FB681800FFF72FFAC046BD4604B09D
:105FAC0080BDC046FFFEFFFF80B584B000AF7860B7
:105FBC007B685B6AFB60FB681800FFF725FAC0463C
:105FCC00BD4604B080BD80B586B000AF78607B68FC
:105FDC005B6A7B617B695B6F3B617B699B6FFB6081
:105FEC007B691B689B6880221340802B0AD13B691C
:105FFC00212B07D17B695222002199527B69180011
:10600C00FFF732FF7B691B689B6840221340402BD3
:10601C000AD1FB68222B07D17B695A2200219952A5
:10602C007B691800FFF733FF7B69DB6F10221A4383
:10603C007B69DA677B691800FFF7EEF9C046BD464D
:10604C0006B080BD80B584B000AF78607B685B6AB9
:10605C00FB60FB685A2200219952FB6852220021F6
:10606C009952FB681800FFF7D7F9C046BD4604B03B
:10607C0080BD80B584B000AF78607B685B6AFB60E4
:10608C00FB689B6E00225A63FB68DB6E002B04D00E
:10609C00FB68DB6E5B6B002B19D1FB685222002175
:1060AC009952FB685A2200219952FB680022DA6748
:1060BC00FB681B680F221A62FB6820225A67FB6878
:1060CC0020229A67FB681800FFF7AEF900E0C04683
:1060DC00BD4604B080BD80B584B000AF78607B68ED
:1060EC005B6AFB60FB68DB6E00225A63FB689B6E8D
:1060FC00002B04D0FB689B6E5B6B002B21D1FB68E3
:10610C00522200219952FB685A2200219952FB68B5
:10611C000022DA67FB681B680F221A62FB681B6897
:10612C00FA681268926908210A439A61FB68202276
:10613C005A67FB6820229A67FB681800FFF774F90E
:10614C0000E0C046BD4604B080BD80B584B000AF51
:10615C0078607B685B6AFB60FB6852220021995275
:10616C00FB6820225A67FB681800FFF765F9C046E8
:10617C00BD4604B080BD80B584B000AF78607B684C
:10618C005B6AFB60FB685A2200219952FB681B6812
:10619C000F221A62FB681B68FA6812689269082160
:1061AC000A439A61FB6820229A67FB681800FFF784
:1061BC004BF9C046BD4604B080BD80B582B000AF7F
:1061CC0078607B685B6F212B2BD17B6852229B5AAA
:1061DC009BB2002B10D17B681B687A68126812681E
:1061EC0080218A431A607B681B687A68126812687F
:1061FC0040210A431A6014E07B681A687B68DB6CE8
:10620C001B789BB213857B68DB6C5A1C7B68DA6449
:10621C007B6852229B5A9BB2013B99B27B685222FB
:10622C009952C046BD4602B080BD80B584B000AF67
:10623C0078607B685B6F212B2FD17B6852229B5A35
:10624C009BB2002B10D17B681B687A6812681268AD
:10625C0080218A431A607B681B687A68126812680E
:10626C0040210A431A6018E07B68DB6CFB607B689A
:10627C001B68FA681288D205D20D92B21A857B6817
:10628C00DB6C9A1C7B68DA647B6852229B5A9BB24B
:10629C00013B99B27B6852229952C046BD4604B06C
:1062AC0080BD80B582B000AF78607B681B687A686F
:1062BC001268126840218A431A607B6820225A6750
:1062CC007B6800225A667B681800FFF785F8C04689
:1062DC00BD4602B080BD80B584B000AF78600E239F
:1062EC00FB187A685C21525A1A807B689B6F222BB0
:1062FC0041D17B681A680C23FB18928C1A807B683E
:10630C005B6D0C22BA181288D2B20E21791809884A
:10631C00C9B20A40D2B21A707B685B6D5A1C7B689A
:10632C005A657B685A229B5A9BB2013B99B27B6897
:10633C005A2299527B685A229B5A9BB2002B22D12B
:10634C007B681B687A681268126811490A401A60E7
:10635C007B681B687A681268926801218A439A608C
:10636C007B6820229A677B6800221A667B6818007B
:10637C00FFF742F807E07B681B687A68126892693D
:10638C0008210A439A61C046BD4604B080BDC04690
:10639C00DFFEFFFF80B584B000AF78600E23FB18E2
:1063AC007A685C21525A1A807B689B6F222B41D1F0
:1063BC007B681A680C23FB18928C1A807B685B6DC7
:1063CC00BB600C23FB180E22BA181B8812881340D2
:1063DC009AB2BB681A807B685B6D9A1C7B685A65A5
:1063EC007B685A229B5A9BB2013B99B27B685A221A
:1063FC0099527B685A229B5A9BB2002B22D17B6804
:10640C001B687A681268126810490A401A607B6827
:10641C001B687A681268926801218A439A607B68CB
:10642C0020229A677B6800221A667B681800FEF7A8
:10643C00E3FF07E07B681B687A68126892690821A1
:10644C000A439A61C046BD4604B080BDDFFEFFFF23
:10645C0080B586B000AFF860B9607A603B60FB68CD
:10646C00002B01D1012359E0FB685B6F002B07D196
:10647C00FB68702200219954FB68180000F060FC46
:10648C00FB6824225A67FB681B68FA68126812685A
:10649C0001218A431A60FB681800FFF748F90300D2
:1064AC00012B01D1012339E0FB685B6A002B03D07F
:1064BC00FB681800FFF768FBFB681B68FA6812683A
:1064CC0092688021C9010A439A60FB681B68FA68CC
:1064DC001268926813491140BA680A439A607B6843
:1064EC005B057B613B681B047A6913437B61FB682A
:1064FC001B68FA68126812680B4911407A690A43E2
:10650C001A60FB681B68FA681268126801210A435A
:10651C001A60FB681800FFF7E3FB03001800BD4688
:10652C0006B080BDFF7FFFFFFFFF00FC80B582B08F
:10653C0000AF7860C046BD4602B080BD80B582B069
:10654C0000AF786039607B68002B01D1012322E019
:10655C007B6824225A677B681B687A681268126809
:10656C0001218A431A607B681B687A68126852683A
:10657C0010218A4311003A680A435A607B681B68F1
:10658C007A681268126801210A431A607B68180045
:10659C00FFF7A6FB03001800BD4602B080BD80B516
:1065AC0088B002AFF8603B1D19605A601723FB18C6
:1065BC0000221A70FB6870229B5C012B01D1022314
:1065CC004AE0FB68702201219954FB6824225A6727
:1065DC00FB681B68FA681268126801218A431A600A
:1065EC00FB681B68FA68126892681D4911403A1DD5
:1065FC0012680A439A603B1D1B68002B05D13B1D9A
:10660C00F86819685A6800F06FF8FB681B68FA683C
:10661C001268126801210A431A60F9F7F1FD0300B0
:10662C003B613A698023D903F8680E4B0093130041
:10663C000022FFF79BFB031E04D01723FB18032239
:10664C001A7002E0FB6820225A67FB687022002156
:10665C0099541723FB181B781800BD4606B080BD53
:10666C00FFFFCFFFFFFFFF0180B582B000AF786066
:10667C007B6870229B5C012B01D1022310E07B68AC
:10668C007022012199547B681B687A681268126821
:10669C0002210A431A607B6870220021995400235E
:1066AC001800BD4602B080BD80B582B000AF7860E6
:1066BC007B6870229B5C012B01D1022310E07B686C
:1066CC007022012199547B681B687A6812681268E1
:1066DC0002218A431A607B6870220021995400239E
:1066EC001800BD4602B080BD80B584B000AFF86024
:1066FC003B1D19605A60FB681B68FA681268526887
:10670C0010218A43391D89880A435A60FB681B682B
:10671C00FA68126852681202110A3A1D927912062E
:10672C000A435A60C046BD4604B080BD80B59CB0DB
:10673C0000AFF9F7E1FC00F01BF900F0DDF900F017
:10674C0073F900F0A9F97E4B1800FAF789F84C237D
:10675C00FB1800221A604C23FB1800225A604C23B1
:10676C00FB180022DA604C23FB1800229A604C23A1
:10677C00FB1808221A614C23FB1800221A753023CF
:10678C00FB1800221A603023FB1800225A603023B9
:10679C00FB1800229A603023FB180022DA603023A9
:1067AC00FB1808221A613023FB1800225A6130238F
:1067BC00FB1800229A612823FB18624A03CA03C300
:1067CC000023FB660023BB665F4B012202211800ED
:1067DC00FBF7F9FF2823FB183022BA185848002180
:1067EC00FAF720FB031E0FD1C04658495848A52381
:1067FC000D22FDF727FD031EF7D180231B01554801
:10680C0000221900FBF7DFFFC04653495048A5236F
:10681C000A22FDF717FD031EF7D180231B014D48FB
:10682C0001221900FBF7CFFF1C23FB180A220021C1
:10683C00180000F0B7FC1023FB180A2200211800E6
:10684C0000F0B0FC3B1D0A220021180000F0AAFC4D
:10685C003B4B1800FAF79FFE0300BB66384B180041
:10686C00FAF7C9FE0300FB66FB6E1C22B918102256
:10687C00180000F093FC7B6E1022B9180A22180045
:10688C0000F08CFCBB6E391D1022180000F086FC49
:10689C00C0461C23FB18180000F086FB03009AB2BC
:1068AC001C23F9182A48A523FDF7CCFC031EF0D1B4
:1068BC00C0462A49264864230D22FDF7C3FC031E5B
:1068CC00F7D1C0461023FB18180000F06DFB030035
:1068DC009AB21023F9181E48A523FDF7B3FC031E2A
:1068EC00F0D1C0461E491A48A5230A22FDF7AAFC7E
:1068FC00031EF7D1C0463B1D180000F055FB0300EA
:10690C009AB2391D1248A523FDF79CFC031EF2D147
:10691C00C04614490E48A5230D22FDF793FC031E17
:10692C00F7D1C04610490A4841232F22FDF78AFCB3
:10693C00031EF7D10D4B1800F9F7B8FC4AE7C04617
:10694C00AC0000200C73000800040048947200088E
:10695C002C00002000080048A4720008B072000847
:10696C00C0720008CC720008DC72000888130000AA
:10697C0080B598B000AF2C23FB18180034231A00F4
:10698C00002100F00FFC1C23FB18180010231A0028
:10699C00002100F007FC3B0018001C231A0000210A
:1069AC0000F000FC2C23FB1820221A602C23FB186F
:1069BC0001221A622C23FB1800225A622C23FB188A
:1069CC001800FCF70DF8031E01D000F011F91C2380
:1069DC00FB1807221A601C23FB1803225A601C2385
:1069EC00FB1800229A601C23FB180022DA601C237F
:1069FC00FB1801211800FCF777FB031E01D000F0F7
:106A0C00F7F83B008022D2021A603B0000221A6188
:106A1C003B001800FCF732FE031E01D000F0E8F832
:106A2C00C046BD4618B080BD80B500AF184B194AA2
:106A3C001A60174BC82252005A60154B00229A60FC
:106A4C00134B0022DA60124BA022D2021A61104BB7
:106A5C008022D2035A610E4B00221A760C4B012273
:106A6C005A760B4B00229A76094B0022DA76084BA9
:106A7C0000221A77064B00225A77054B1800F9F7BB
:106A8C00C7FC031E01D000F0B3F8C046BD4680BD64
:106A9C00AC0000200064004080B500AF144B154AD8
:106AAC001A60134BE12252025A60114B00229A6079
:106ABC000F4B0022DA600E4B00221A610C4B0C2299
:106ACC005A610B4B00229A61094B0022DA61084B88
:106ADC0000221A62064B00225A62054B1800FDF781
:106AEC00CBF9031E01D000F083F8C046BD4680BD33
:106AFC002C0000200048004080B588B000AF0C236B
:106B0C00FB18180014231A00002100F04BFB354B26
:106B1C00344A5269802109030A435A61314B5A693C
:106B2C0080231B031340BB60BB682E4B2D4A52695C
:106B3C008021C9020A435A612A4B5A698023DB021D
:106B4C0013407B607B68274B264A5269802189025F
:106B5C000A435A61234B5A6980239B0213403B60C2
:106B6C003B68214B002202211800FBF72CFE8023EE
:106B7C001B011E4800221900FBF725FE0C23FB18F5
:106B8C0002221A600C23FB1801225A600C23FB18FA
:106B9C0000229A600C23FB180022DA600C23FB18ED
:106BAC00114A19001000FBF7A1FB0C23FB188022E3
:106BBC0012011A600C23FB1801225A600C23FB18DB
:106BCC0000229A600C23FB180022DA600C23FB18BD
:106BDC00064A19001000FBF789FBC046BD4608B0F9
:106BEC0080BDC04600100240000400480008004868
:106BFC0080B500AFC046BD4680BDC04680B582B0F2
:106C0C0000AF0F4B0E4A926901210A439A610C4B5B
:106C1C009B69012213407B607B68094B084AD2694F
:106C2C00802149050A43DA61054BDA6980235B054B
:106C3C0013403B603B68C046BD4602B080BDC046B9
:106C4C000010024080B58AB000AF78601423FB18A6
:106C5C00180014231A00002100F0A4FA7B681B68AA
:106C6C00234A934240D1234B224AD2698021890482
:106C7C000A43DA611F4BDA6980239B0413403B61A2
:106C8C003B691C4B1B4A5269802189020A435A6199
:106C9C00184B5A6980239B021340FB60FB6814233A
:106CAC00FB18C02252011A601423FB1802225A60EE
:106CBC001423FB1800229A601423FB180322DA60B9
:106CCC001423FB1804221A611423FA189023DB05F1
:106CDC0011001800FBF70AFB002200211E20FAF716
:106CEC0035FE1E20FAF748FEC046BD460AB080BDF0
:106CFC00006400400010024080B582B000AF7860A4
:106D0C007B681B680B4A934210D10B4B0A4AD26921
:106D1C000A490A40DA61C0235A019023DB051100AD
:106D2C001800FBF75BFC1E20FAF736FEC046BD468A
:106D3C0002B080BD0064004000100240FFFFFFFD68
:106D4C0080B58AB000AF78601423FB1818001423A8
:106D5C001A00002100F026FA7B681B68224A934235
:106D6C003ED1224B214AD2698021C9020A43DA6101
:106D7C001E4BDA698023DB0213403B613B691B4BE2
:106D8C001A4A5269802109030A435A61174B5A69FE
:106D9C0080231B031340FB60FB681423FB18302279
:106DAC001A601423FB1802225A601423FB180022C9
:106DBC009A601423FB180322DA601423FB180122B7
:106DCC001A611423FB180A4A19001000FBF78EFAFB
:106DDC00002200211D20FAF7B9FD1D20FAF7CCFD89
:106DEC00C046BD460AB080BD0048004000100240BD
:106DFC000008004880B582B000AF78607B681B68E3
:106E0C000A4A93420DD10A4B094AD26909490A40F0
:106E1C00DA61094B30211800FBF7E0FB1D20FAF773
:106E2C00BBFDC046BD4602B080BDC0460048004018
:106E3C0000100240FFFFFBFF0008004880B500AFC8
:106E4C00C046BD4680BD80B500AFFEE780B500AF43
:106E5C00C046BD4680BD80B500AFC046BD4680BDB6
:106E6C0080B500AFF9F7BAF9C046BD4680BD80B514
:106E7C0000AF034B1800FEF773F9C046BD4680BD4A
:106E8C002C00002080B500AF034B1800FAF76AF90C
:106E9C00C046BD4680BDC046AC00002080B500AFEA
:106EAC00C046BD4680BD80B584B000AF0023FB60FA
:106EBC000023BB6000237B6000233B60354B5B6889
:106ECC000C221340FB60FB68042B07D0082B09D065
:106EDC00002B48D1304B314A1A6048E02E4B2F4AD8
:106EEC001A6044E02B4B5A68F0239B031340BB60A1
:106EFC00284B5A68C0235B0213407B60BB689B0C19
:106F0C000233BB60234BDB6A0F22134001333B601F
:106F1C007A6880235B029A420AD139681F4800F0D4
:106F2C004BF803001A00BB685A431B4B1A601EE057
:106F3C007A68C0235B029A420AD13968184800F07B
:106F4C003BF803001A00BB685A43134B1A600EE05F
:106F5C003968124800F030F803001A00BB685A4335
:106F6C000D4B1A6003E00C4B0C4A1A60C046094BDF
:106F7C005B681B090F2213400A4AD35CFB60064B6B
:106F8C001A68FB68DA40044B1A60C046BD4604B070
:106F9C0080BDC046001002400800002000127A009C
:106FAC00006CDC02187300080023C25C0133002A59
:106FBC00FBD1581E70470000002243088B4274D34B
:106FCC0003098B425FD3030A8B4244D3030B8B42DE
:106FDC0028D3030C8B420DD3FF22090212BA030CE7
:106FEC008B4202D31212090265D0030B8B4219D3C8
:106FFC0000E0090AC30B8B4201D3CB03C01A5241E8
:10700C00830B8B4201D38B03C01A5241430B8B422F
:10701C0001D34B03C01A5241030B8B4201D30B0318
:10702C00C01A5241C30A8B4201D3CB02C01A52413F
:10703C00830A8B4201D38B02C01A5241430A8B4202
:10704C0001D34B02C01A5241030A8B4201D30B02EB
:10705C00C01A5241CDD2C3098B4201D3CB01C01A05
:10706C00524183098B4201D38B01C01A524143090F
:10707C008B4201D34B01C01A524103098B4201D3FD
:10708C000B01C01A5241C3088B4201D3CB00C01A6A
:10709C00524183088B4201D38B00C01A52414308E2
:1070AC008B4201D34B00C01A5241411A00D2014607
:1070BC00524110467047FFE701B5002000F006F87A
:1070CC0002BDC0460029F7D076E770477047C0462E
:1070DC000D4885460D480E490E4A002302E0D4584F
:1070EC00C4500433C4188C42F9D30B4A0B4C002304
:1070FC0001E013600432A242FBD3FFF7CFFE00F095
:10710C0011F8FFF713FBFEE70080002000000020C1
:10711C000C000020607300080C000020D40000203C
:10712C00FEE7000070B500260C4D0D4C641BA4103E
:10713C00A64209D1002600F081F80A4D0A4C641BC6
:10714C00A410A64205D170BDB300EB589847013688
:10715C00EEE7B300EB5898470136F2E75873000896
:10716C0058730008587300085C730008931E10B520
:10717C000C00222B04D900231C000B70200010BD26
:10718C000A2A09D1002807DA2D230B70012140426D
:10719C00611800F00FF8F1E70021F9E710B5FFF7DF
:1071AC00E5FF10BD03008218934200D1704719709F
:1071BC000133F9E7F0B517008FB0252206000D005A
:1071CC0004A8184900F030F804AABB1E002403924E
:1071DC00222B05D92C70250028000FB0F0BD019C86
:1071EC00631C0193EB1800933000013B39000293B0
:1071FC00FFF768FF039B029A5B5C30001370390049
:10720C00FFF7DAFE061EEAD1009B18702B005A1B02
:10721C009442E1DD1A78295D19702A550133013C3D
:10722C00F5E7C04630730008002310B59A4200D130
:10723C0010BDCC5CC4540133F8E70000F8B5C0466F
:10724C00F8BC08BC9E467047F8B5C046F8BC08BCF4
:04725C009E46704793
:10726000962100089E210008A6210008AE210008F2
:10727000B621000802030405060708090A0B0C0DD5
:107280000E0F10100102030405060708090A0B0C73
:107290000D0E0F100D0A67657448414C5F4F4B0D82
:1072A0000A0000000D0A48414C5F4F4B0D0A0000D8
:1072B0003D6572726F7220636F64650D0A00000095
:1072C0003D6D61696C626F780D0A00003D63616E0F
:1072D000207374617475730D0A0000000D0A2A2A68
:1072E0002A2A2A2A2A2A2A2A2A2A2A2A2A2A2A2AFE
:1072F0002A2A2A2A2A2A2A2A2A2A2A2A2A2A2A2AEE
:107300002A2A2A2A2A2A2A2A2A0D0A003132333422
:107310003536373800000000000000000000000093
:10732000010203040607080900000000010203042B
:1073300030313233343536373839616263646566EB
:107340006768696A6B6C6D6E6F7071727374757655
:087350007778797A0000000053
:04735800E500000844
:04735C00BD00000868
:0C736000040000000100000000127A0090
:04000005080070DDA2
:00000001FF
